:020000040000FA
:10200000B0070010B5210000BD210000113900000B
:10201000C1210000C3210000C52100000000000014
:10202000000000000000000000000000C7210000C8
:10203000C921000000000000CB2100004940000041
:10204000D1210000D1210000D1210000D1210000C8
:10205000D1210000D1210000D1210000D1210000B8
:10206000D1210000D1210000D1210000D1210000A8
:10207000D121000069310000D1210000D1210000F0
:1020800081420000D1210000D1210000D1210000B7
:10209000D1210000D1210000CF210000CF2100007C
:1020A000F52C0000D1210000D1210000CF2100003B
:1020B000D1210000D1210000D1210000D121000058
:1020C00000F002F800F04BF80CA030C808382418D3
:1020D0002D18A246671EAB4654465D46AC4201D160
:1020E00000F03DF87E460F3E0FCCB6460126334247
:1020F00000D0FB1AA246AB46334318478C41000080
:10210000AC410000103A02D378C878C1FAD852071F
:1021100001D330C830C101D504680C60704700009D
:102120000023002400250026103A01D378C1FBD8F3
:10213000520700D330C100D50B60704710B5642939
:1021400002D100F09DF810BD782902D100F0CEF840
:1021500010BD002010BD1FB51FBD10B510BD00F093
:10216000E9FC1146FFF7F7FF02F0F6FC00F001FD75
:1021700003B4FFF7F2FF03BC02F06EFA70B5054638
:102180000C46164602E00FCC0FC5103E102EFAD2B8
:10219000082E02D303CC03C5083E042E07D301CC7E
:1021A00001C5361F03E021782970641C6D1C761E62
:1021B000F9D270BD0A4880470A480047FEE7FEE7AB
:1021C000FEE7FEE7FEE7FEE7FEE7FEE7FEE7FEE7E7
:1021D000FEE7000004480549054A064B7047000029
:1021E000CD410000C1200000B0020010B007001077
:1021F000B0040010B00400100FB4054910B503AAD4
:10220000029800F0EDFB10BC08BC04B018470000B9
:102210008C010010F8B50E460446002020622046CE
:10222000E1688847002829D0252802D06268A16883
:1022300020E0E16820460027884705001ED0284698
:102240004138192802D80127FF022035324620469E
:1022500027602946FFF772FF002808D0012804D024
:10226000F61DF608F6000836D9E7361DD7E762688E
:102270002846A1689047206A401CCFE7206AF8BD35
:10228000F7B5002575291068009914A611D0C0462D
:10229000C046002802DA404211A608E00099096809
:1022A0008A0701D50FA602E0490704D50EA601252D
:1022B00001E0C046C046009F0024243704E000F03F
:1022C000A3FB30313955641C0028F8D12B46324627
:1022D0002146009800F02BFBFEBD0000000000002E
:1022E0002D0000002B0000002000000070B5044607
:1022F0000D4621461068C046C0462188090502D512
:102300000F4A7A4402E00E4A7A440E3223460021F4
:10231000243305E006070009360F965D5E54491C1C
:102320000028F7D120780023000705D5702D03D0B1
:10233000002901D002231132204600F0F8FA70BDC6
:10234000BA3E0000002203098B422CD3030A8B42C1
:1023500011D300239C464EE003460B433CD400229D
:1023600043088B4231D303098B421CD3030A8B42AF
:1023700001D394463FE0C3098B4201D3CB01C01A7D
:10238000524183098B4201D38B01C01A5241430948
:102390008B4201D34B01C01A524103098B4201D336
:1023A0000B01C01A5241C3088B4201D3CB00C01AA3
:1023B000524183088B4201D38B00C01A524143081B
:1023C0008B4201D34B00C01A5241411A00D2014640
:1023D0005241104670475DE0CA0F00D049420310D9
:1023E00000D34042534000229C4603098B422DD328
:1023F000030A8B4212D3FC22890112BA030A8B42D0
:102400000CD3890192118B4208D3890192118B421E
:1024100004D389013AD0921100E08909C3098B42A3
:1024200001D3CB01C01A524183098B4201D38B01E6
:10243000C01A524143098B4201D34B01C01A524189
:1024400003098B4201D30B01C01A5241C3088B42CE
:1024500001D3CB00C01A524183088B4201D38B00B9
:10246000C01A5241D9D243088B4201D34B00C01A43
:102470005241411A00D20146634652415B10104658
:1024800001D34042002B00D54942704763465B10A0
:1024900000D3404201B50020C046C04602BD70478F
:1024A00070477047F0B58B4C0F09254689B0BD4386
:1024B0007BD01D092646AE43FAD00E465E4027402B
:1024C000F60F3E43254071D024012142FBD0FF246A
:1024D000AD19A4042D1B039501252D05DB02DB0A94
:1024E000C9022B43C90A29431E010901040F130F16
:1024F000050121431701880B820391432D098C4666
:10250000A90B1E438A039543B30B9A0396433F09D5
:10251000BA0B9403A74302962E467E430497B64611
:102520004E19D7190C460196544305977E43371B25
:102530007646BF1B3601B646BE0B36190096764668
:10254000BC043719009C01D3641C00946400002F64
:1025500001D001263443029E049F754366467E43A4
:102560000496760034196E0034190094029C019E82
:102570001C196643751BAE46069465464519059CB5
:1025800005956C43594375460891691A0191049E5B
:1025900001465143A41B0491611A009C0791E10676
:1025A00005D061090122114302E072E06EE0610989
:1025B000089D00272C0A2D066918049D7C412A0AD3
:1025C0002D066918019D6241AC0DAD026D18544194
:1025D000079A910D920255196141029A6446584337
:1025E0005443069B059A5A43121A131B9A0E9B01D9
:1025F0005B187A41010B0005C3185141220A2006DD
:1026000044195A419A4200D2491C01204002814299
:1026100003D315230226F64302E014230326F643D0
:102620002020C51AA9401746AF40DA400A43204689
:102630000399D8400914731819055118039A38439F
:10264000D2075140AC4009D00122944006D3002269
:10265000401C5141002C01D1400840001E4A9342C9
:1026600012D3012203989206904207DB052040070F
:1026700009181A480143C012414004E003204007F2
:102680000818C10FC907002009B0F0BD0020F107EC
:10269000FAE705180C464C4111486D42A04115D38C
:1026A00094181A465A410E48644290410ED30120B4
:1026B0004A004005824209D35A00824206D359405B
:1026C000C90F084AC90700201143DDE70020064969
:1026D000DAE700000000FF07FE070000FFFFFF7FB2
:1026E0000000E0FF0000F07F0000F87F0121C90535
:1026F0000123411842001B06D3185B0E0AD0C110FB
:102700000722D206891840075242D14201D5520011
:1027100089187047090208D50146002A03D0C10F65
:10272000C9070020704710467047420202D00020BF
:1027300002497047072109050143F4E70000F87FCB
:10274000F0B5FF252D04C609C209FF2704462E4017
:102750000137CB093E4348402A402B400746002A18
:102760006BD0002B69D0AA4267D0AB4265D000285D
:1027700000DA32460125ED0529432C4309022002E7
:10278000090AD21A4B0C7F24E31A434C000A7C44FA
:10279000E35C7D242404121914145B00A2188842FF
:1027A00001D3521C00E0400049420C465C43241116
:1027B0005C43DB016415E318040A5C43C502200D89
:1027C0000C4644436419250A5D432303EC0C0D4673
:1027D000654300030019EB184C42A34201D35B1878
:1027E000401CD4052018002B07D05B00C91804D367
:1027F000401C002901D1400840003F2189048A4241
:1028000009D3002A08DC1106090F04D00321490767
:102810004018C00FC007F0BD012241001206891800
:102820007F2252069142F6D205214907C84201D5BE
:102830009010F0BDFF20C005F0BD002F00DA324639
:102840001648AA4207D2AB4205D21902090E17D088
:10285000F80FC007F0BDFF2563002D06AB42F9D885
:102860004900A942F6D8AB4201D1A942F2D0A9420F
:1028700001D1002101E061004908D0050843F0BD05
:102880001102090EFBD0FF200243D005F0BD0A461D
:102890000146104654E70000563A00000000C07F91
:1028A0000102C21504D00123DB071943002A0ADB09
:1028B0009E239A1A02D40846D0407047FF22410056
:1028C0001206914201D900207047C017C0437047DB
:1028D0001F22030C02D10F2200041CD0030E01D1D1
:1028E0000002083A030F01D10001121F830F01D12A
:1028F0008000921E002801DB4000521ED2055118B4
:10290000021251181922904004D3491C002801D109
:102910004908490008467047C10FC90700D0404226
:10292000012292071143D3E701218907D0E7FFB5C0
:1029300004460D4681B0243000902168880604D5F5
:102940001022E0699143216000E00120A84201DDEE
:10295000471B00E000270498A1697A191018081A8B
:10296000A0612078C00602D42046C046C04600269A
:1029700008E003986268A168805D9047206A401C67
:10298000761C206204988642F3DB2078C0060AD5C4
:102990002046C046C04606E06268A16830209047E5
:1029A000206A401C206238467F1E0028F4DC07E0C5
:1029B00000986268A168405D9047206A401C2062D0
:1029C00028466D1E0028F3DC2046C046C04620780D
:1029D000000602D5022005B0F0BD0120FBE7000093
:1029E000084B70B50D467B4400F06FF8044628464E
:1029F00002F097F8002802D00020C04370BD2046A6
:102A000070BD00003F21000001468008081A02093D
:102A10001018020A1018020C1018C00882001218B0
:102A20005200891A01E0401C0A390A29FBD270477A
:102A3000F8B5224C4E00069DA6420AD8A64201D106
:102A4000002806D15E00A64203D8A6420AD1002A79
:102A500008D00D24240425422CD02946002000F063
:102A600047F8F8BD0C461C430CD4994202D0EFF352
:102A70000080F8BD904202D0EFF30080F8BDEFF384
:102A80000080F8BD09242407E5008B4206D0EFF34F
:102A90000080A043591A06D2284304E0101A05D337
:102AA000EFF30080A04380F30088F8BDEFF30080CF
:102AB000A043F1E7009500F033F8F8BD0000E0FF17
:102AC00001694A1C02610878704700B58FB0029115
:102AD0000021059105490193794403911146049021
:102AE0006846FFF797FB0FB000BD0000E5FFFFFF52
:102AF000C80212D54803400F002804D0C803C043C1
:102B0000012188407047EFF3008000010009032194
:102B10000907084380F300887047002070470000D1
:102B200010B500200249029A00F02BF810BD0000F9
:102B30000000F87F754600F053F8AE460500694680
:102B40005346C008C000854618B020B5FFF742FBC9
:102B500060BC00274908B6460026C0C5C0C5C0C530
:102B6000C0C5C0C5C0C5C0C5C0C5403D49008D4633
:102B7000704710B50446C046C0462046FFF7F8FA35
:102B800010BD10B50C461107090F092904D00A29F8
:102B90000AD008290CD104E011460820FFF7A8FF4D
:102BA00006E0510606D501E0510601D50120C00717
:102BB000214610BDD10607D501010909CC084907F6
:102BC000000E0006044309E0410F20024907000AF5
:102BD0000143200E00061D22D14101430846E7E7CC
:102BE000004870475002001010B53B48806B102120
:102BF00088433949886339480068012149030843FB
:102C00003649086008460068012109040843334931
:102C1000086033488069602108403149886108466E
:102C20008069012108432E4988612E480068000A06
:102C300000022C49086008460068802108432949A1
:102C4000086008460068FF2109028843254908609A
:102C500022484038008FC1B223480068FFF772FB5A
:102C600004462249FFF76EFB401E00021D49096819
:102C700008431C490860084600680121090488438C
:102C80001849086008460068C9008843154908606B
:102C900008460068890288431249086008460068AF
:102CA0000121090608430F4908600846C068400A28
:102CB0004002C8600846C068802108430949C860CE
:102CC0001820002805DBC206D20E01219140084AD7
:102CD000116000BF10BD00000082044080800440ED
:102CE0008040044000C00140880100106CDC0200FC
:102CF00000E100E00A490978491C094A11700949B4
:102D0000C96A094A114008468109084A11800549E3
:102D10000968012212061143024A1160704700003F
:102D20006001001000C00140C0FF00005C01001005
:102D300010B5062200210520000700F099FB10BD08
:102D400010B5072200210520000700F091FB10BDFF
:102D500010B500F0F7FF00F037F800F05DF8132031
:102D600007490870EC204870002405E00021044A5F
:102D7000A01C1154601CC4B2202CF7DB10BD000055
:102D8000C601001010B5002417E000231A460121E7
:102D90000520000700F004FC00F08EFE09490855EC
:102DA00000F016FD0123002219460520000700F05F
:102DB000F7FB00F00DFD601CC4B2222CE5DB0148DE
:102DC0000A3010BDA401001010B501230522022114
:102DD000100700F0E5FB002403E000F0F9FC601CA4
:102DE00084B2C82CF9DB002305220221100700F071
:102DF000D7FB002403E000F0EBFC601C84B2054824
:102E00008442F8DB012305220221100700F0C8FBF1
:102E100010BD0000B80B000070B5154D06E0002D88
:102E200003D105252D04FFF7CFFF6D1EFFF788FFA7
:102E30000028F4D0002417E00E49085D00F0BCFE25
:102E40000023012211460520000700F0A9FB00F035
:102E5000BFFC01231A4619460520000700F0A0FB1D
:102E600000F0B6FC601CC4B2222CE5DB70BD000093
:102E7000FFFFFF0FCE5C000010B50020174908804F
:102E800009E0164801880088401C144A1080144844
:102E9000814200DD10BDFFF753FF0028F1D0002470
:102EA00017E01049085D00F087FE0023012211465B
:102EB0000520000700F074FB00F08AFC01231A468D
:102EC00019460520000700F06BFB00F081FC601C38
:102ED000C4B2222CE5DB00BFDCE7000012010010C9
:102EE000FAFF0000845C000070B50546002606E08D
:102EF0003046711C8EB21949884200DD70BDFFF763
:102F00001FFF0028F4D0002407E02978144A204647
:102F10000A3011546D1C601CC4B2062CF5DB002471
:102F200017E00F49085D00F047FE0023012211461B
:102F30000520000700F034FB00F04AFC01231A468C
:102F400019460520000700F02BFB00F041FC601C37
:102F5000C4B2222CE5DB00BFD0E70000FAFF00007E
:102F6000C601001070B5002000F034F80446882C2B
:102F700001D1002070BD8821002000F050F8002011
:102F800000F028F80446882C1CD10321012000F011
:102F900046F80021022000F042F80B4D0B4928466C
:102FA000FFF7D0F9CEB23146094800F038F80749AA
:102FB0002846FFF7C7F9C6B231460548401C00F065
:102FC0002EF800BF0020D5E70CC733011027000002
:102FD000D107000030B50346002500F0D3FC1C46A5
:102FE000D917090E091909124900A031C8B200F019
:102FF000BAFC1C46D917090E091909120902591AF7
:10300000C8B200F0B0FC00F0BDFCA12000F0ABFCA9
:1030100000F09AFC054600F0C8FC284630BD30B5EB
:1030200003460D4600F0AEFC1C46D917090E0919DF
:1030300009124900A031C8B200F095FC1C46D9170E
:10304000090E091909120902591AC8B200F08BFCBD
:10305000284600F088FC00F0A8FC01F053FD30BDCC
:1030600010B50B480121A4228150A8228150094C9F
:10307000204600F00DFBE1214902204600F03AFB1A
:103080000320E0608120A0608020206310BD00004C
:10309000004004400080004010B5FFF7E1FF05202C
:1030A000000700F00FFA0348016880221143016015
:1030B00010BD00000080005010B501F08BF80948E9
:1030C00001680122120411430160074A074B0020E6
:1030D00081005C582106240A890D5450401C0A289E
:1030E000F6D310BD8080044000400440946100008D
:1030F00001B501226946024800F0EAFA08BD000065
:103100000080004030B585B004462546012D02D030
:10311000022D1AD10CE0134800680B21C9010843A5
:1031200000900821684601741121017241720CE07F
:103130000C4800680B21C90108430090082168462B
:10314000017422210172417200BF00BF0021684654
:103150008172C172017341738173C17301F0A6FC66
:1031600005B030BD1801001010B50349896B89689E
:103170004868804710BD0000C01FFF1FC107C90F6E
:1031800000291CD102210140002918D1042101404D
:10319000002914D108210140002910D1102101403B
:1031A00000290CD120210140002908D140210140F3
:1031B000002904D180210140002900D100BF7047BF
:1031C00000B58FB02022224905A8FEF7D7FF0020C6
:1031D0006946487401901F4908701F4908601F49DB
:1031E00008701F4908701F4908701F4908700120A6
:1031F0001E49087000201E4908701E4908701E49AB
:1032000008701E4908701E4908700DA91D4801F07C
:1032100025FA1D48806B8068012102680DA890473F
:103220001948806B80688168684688471648806BBB
:103230008068C16905A888470D20002805DBC20603
:10324000D20E01219140114A116000BF0FB000BDA4
:10325000345D00002C01001030010010340100101A
:10326000210100101C0100101501001023010010A5
:10327000390100103801001037010010360100102C
:103280003501001010270000C01FFF1F00E100E003
:103290000D20002815DBC206D20E01219140114AF3
:1032A000116000BF00BF00BFBFF34F8F00BF00BF62
:1032B00000BF00BF00BF00BFBFF36F8F00BF00BFE4
:1032C00000BF00BF0848406808218843064948609D
:1032D00000BF00BF04484068082108430249486015
:1032E0007047000080E100E00080044038B50446EB
:1032F000012009490870094844740948806B8068B6
:10330000C1680648884705480069009003480FC80F
:1033100001F010FA38BD000020010010FC0100107F
:10332000C01FFF1F0021014A1170704721010010CA
:10333000F0B5FFB0FFB083B005460E460122920201
:103340000D4901A8FEF71AFF0024E4432F4609E0C7
:1033500038787F1C60400006800D01A90858210ABA
:10336000484004463046761E0028F1D1E0437FB045
:103370007FB003B0F0BD0000545D000010B50B49F4
:103380000020096B8907890F08D0012908D002297C
:1033900009D0032901D100F02BF810BD044810BD5D
:1033A00000F012F810BD00F02FF810BD408004406E
:1033B000001BB70010B5FFF7E1FF0249896BFEF76C
:1033C000C1FF10BD40800440064800688007800FA0
:1033D00003D0012803D000207047034870470348FA
:1033E0000068704740800440001BB700BC610000CB
:1033F00000B504488168FFF7E7FFC906C90E491CFC
:10340000484300BD0080044010B50648406AC1052D
:103410000A0FC006810E9000034A891C1058FEF75F
:1034200091FF10BD0080044054610000034908630F
:10343000002048630120486370470000408004403A
:103440000349086000204860012048607047000080
:103450004080044010B503460804C4180120904081
:1034600080002058002801D0012010BD0020FCE77A
:1034700010B503460804C41801209040800020586D
:10348000002801D0012010BD0020FCE710B5034644
:103490000804C4180120904080002058002801D062
:1034A000012010BD0020FCE710B503460804C41835
:1034B0000120904080002058002801D0012010BD3C
:1034C0000020FCE702480168402211430160704778
:1034D0008080044030B50B041B180124E4031B1941
:1034E0001B6801249440A3430C0424180125ED0318
:1034F0006419236030BD30B50B041B180124E403AC
:103500001B191B6801249440A3430C0424180125B3
:10351000ED036419236030BD30B50B041B18012482
:10352000E4031B191B6801249440A3430C042418D2
:103530000125ED036419236030BD30B50B041B1861
:103540000124E4031B191B680124944023430C0449
:1035500024180125ED036419236030BD30B50B0438
:103560001B180124E4031B191B6801249440234306
:103570000C0424180125ED036419236030BD30B517
:103580000B041B180124E4031B191B68012494403D
:1035900023430C0424180125ED036419236030BD76
:1035A00070B51C4694400D042E1801259540AD00C1
:1035B000745170BD70B51C4694400D042E18012541
:1035C0009540AD00745170BD70B51C4694400D041B
:1035D0002E1801259540AD00745170BD1C2250433A
:1035E000044A8018012904D10069143001780429A3
:1035F000FCD070476C0100101C21484330B50649CF
:1036000042181379054A146801259D402C43146023
:1036100008586C22826130BD6C010010808004402B
:1036200070B50D460446FFF7A9FE2946FEF78AFE4F
:1036300042081C214C4304490B591A6109590A6973
:10364000801A486170BD00006C0100108B00C250F0
:1036500070478B00C25070478B00C250704700000B
:1036600004498A6BC0B2D2B21043ED221202104359
:103670008863704700820440044A916BC0B2C9B2AB
:103680008143ED20000201439163704700820440B2
:1036900010B507490B680122140323430B608A61AC
:1036A000072181600321C1601021816210BD0000EB
:1036B0008080044010B50346002003E00C78491CCC
:1036C0001C60401C904202DA5C69A406F6D410BD6E
:1036D000F0B51546074600260C4607E02A46214667
:1036E0003846FFF7E7FF2D1A36182418002DF5DCB1
:1036F0003046F0BD70B50E460446FFF73FFE054666
:103700003101FEF71FFE010A0A02E668831A8022D1
:103710001643E660DBB2C9B223606160E1689143A1
:10372000E16001462846FEF70DFE70BD10B5244845
:103730000078012840D100202149087021480078F4
:10374000002802D0012835D11AE0022201210520EB
:103750000007FFF7A9FE00280ED01B48017800786B
:10376000401C194A1070022909DD01201549087012
:1037700000201649087002E00020134908701AE082
:103780000222012105200007FFF78EFE00280DD13F
:103790000E4801780078401C0C4A1070322908DD70
:1037A0000020084908700849087002E00020074915
:1037B000087000E000BF00BF0248007810BD0000A4
:1037C0005B01001045010010470100104601001088
:1037D00000200DE000BF00BF00BF00BF00BF00BF62
:1037E00000BF00BF00BF00BF00BF00BF411CC8B288
:1037F0001428EFDB70470000F8B51C480068FFF79D
:1038000093F807461A49FEF79BFF0646194902F04E
:10381000E1F90546FFF744F80446601E1649884260
:1038200000D90CE0601E154948610321081F00F013
:10383000D7FE0020114988610720086100BFFFF70B
:1038400027FDFFF7BDFC00200D4948740860486063
:103850000C48806B8068816809488847FFF7C4F985
:103860000949002001F066F9F8BD00008801001048
:10387000002474490050C347FFFFFF0000E000E050
:1038800090010010C01FFF1FA086010010B5082284
:10389000022105200007FFF7F9FD002801D10120D2
:1038A00010BD0020FCE710B507220221052000070B
:1038B000FFF7ECFD002801D1012010BD0020FCE73E
:1038C00010B50022032105200007FFF758FE00F085
:1038D000B1F80222012105200007FFF71DFE052295
:1038E00001211007FFF74BFE0022022105200007EF
:1038F000FFF712FE0322022105200007FFF70CFE4E
:103900000422012105200007FFF706FE10BD00007C
:1039100000BF00BF00BF00BF00BFBFF34F8F00BF9D
:1039200000BF00BF06480749C86000BF00BF00BF16
:10393000BFF34F8F00BF00BF00BF00BF00BFFDE758
:103940000400FA0500ED00E000BF012189070968C5
:10395000082211400029F8D0D1068968C8B2082190
:10396000CA069161704701218907886000BF012163
:1039700089070968082211400029F8D00821CA06E1
:1039800091617047012080070068202108434906A3
:10399000086000BF01208007006808210840002857
:1039A000F8D02820C1068861704701208007006890
:1039B00010210843890608600820886100BF0120A3
:1039C00080070068102108400028F8D170470000E7
:1039D00010B5012000BF0E49496801228240914381
:1039E0000B4A516000BF00BF114649680122824066
:1039F0001143074A516000BF00BF01220C21054856
:103A0000FFF72AFE01220D210248FFF725FE10BD17
:103A1000008004400040044010B50123002203212F
:103A200005200007FFF7D0FD01200149087010BDF7
:103A30004401001010B500231A4603210520000799
:103A4000FFF7C2FD00200149087010BD44010010BD
:103A500010B500230122022105200007FFF7AAFD6F
:103A600010BD10B501231A46022105200007FFF7FB
:103A7000A1FD10BD10B50123022200210520000781
:103A8000FFF798FD10BD10B500230222194605204E
:103A90000007FFF78FFD10BD10B50023052201219F
:103AA0001007FFF791FD10BD10B50123052219463F
:103AB0001007FFF789FD10BD10B500240B2200216F
:103AC00005200007FFF706FD0B2202210520000755
:103AD000FFF700FD0A220121D006FFF7FBFC0922B7
:103AE000002105200007FFF7F5FC08220021052032
:103AF0000007FFF7EFFC0222114605200007FFF741
:103B0000E9FC0A220221D006FFF7E4FC0922022187
:103B100005200007FFF7DEFC0B220021052000072F
:103B2000FFF7A6FC002801D0012004430B2202214C
:103B300005200007FFF79CFC002801D00220044369
:103B40000A220121D006FFF793FC002801D00420AF
:103B500004430922002105200007FFF789FC002803
:103B600001D0082004430822002105200007FFF7A8
:103B70007FFC002801D010200443022211460520BA
:103B80000007FFF775FC002801D0202004430A221B
:103B90000221D006FFF76CFC002801D0402004432E
:103BA0000922022105200007FFF762FC002801D04E
:103BB00080200443204610BD10B504460B2200218E
:103BC00005200007FFF7B9FC0B22022105200007A2
:103BD000FFF7B3FC0A220121D006FFF7AEFC092251
:103BE000002105200007FFF7A8FC0822002105207E
:103BF0000007FFF7A2FC0222114605200007FFF78D
:103C00009CFC0A220221D006FFF797FC0922022120
:103C100005200007FFF791FCE007C00F002807D040
:103C200001230B22002105200007FFF7B9FC06E065
:103C300000230B22194605200007FFF7B1FC0220E4
:103C40002040002807D001230B2202210520000775
:103C5000FFF7A6FC06E000230B2202210520000747
:103C6000FFF79EFC04202040002806D001230A22F2
:103C70001946D006FFF794FC05E000230A22012133
:103C8000D006FFF78DFC08202040002807D0012334
:103C90000922002105200007FFF782FC06E000232F
:103CA0000922194605200007FFF77AFC1020204062
:103CB000002807D001230822002105200007FFF774
:103CC0006FFC06E000230822194605200007FFF7D5
:103CD00067FC20202040002807D001230222114643
:103CE00005200007FFF75CFC06E0002302221146D6
:103CF00005200007FFF754FC40202040002806D094
:103D000001230A220221D006FFF74AFC05E0002326
:103D10000A220221D006FFF743FC80202040002821
:103D200007D001230922022105200007FFF738FCF4
:103D300006E000230922022105200007FFF730FCDE
:103D400010BD000010B5002211214548FFF77EFC90
:103D5000052202211007FFF7F0FB81221F214048B6
:103D6000FFF774FC0122114605200007FFF7E5FB71
:103D700001221E213A48FFF769FC0022012105209B
:103D80000007FFF7DAFB002214213548FFF75EFC3D
:103D90000722002105200007FFF79CFB00221321CA
:103DA0002F48FFF753FC0622002105200007FFF7EC
:103DB00091FB81221D212A48FFF748FC0B2200219C
:103DC00005200007FFF7B9FB00221C212448FFF75C
:103DD0003DFC0B22022105200007FFF7AEFB8022ED
:103DE0001B211F48FFF732FC0A220121D006FFF7F2
:103DF000A4FB002219211A48FFF728FC0922002100
:103E000005200007FFF799FB002218211448FFF74F
:103E10001DFC0822002105200007FFF78EFB002271
:103E200017210F48FFF712FC022211460520000758
:103E3000FFF783FB002216210948FFF707FC0A223F
:103E40000221D006FFF779FB002215210448FFF775
:103E5000FDFB0922022105200007FFF76EFB10BDC4
:103E60000040044010B500F09BFB04210248FFF71E
:103E70005FFA0446204610BD3402001010B500223F
:103E80002B212E48FFF7E5FB002205212B48FFF7E9
:103E9000E0FB00220E212948FFF7DBFB0022102166
:103EA0002648FFF7D6FB102209212448FFF7D1FB53
:103EB000102208212148FFF7CCFB002207211F48D0
:103EC000FFF7C7FB00220A211C48FFF7C2FB0322B1
:103ED000114605200007FFF741FB082201210520BC
:103EE0000007FFF73BFB0922012105200007FFF730
:103EF00035FB0422022105200007FFF72FFB0822D3
:103F0000022105200007FFF7F6FA0722022105200B
:103F10000007FFF7F0FA0222002105200007FFF753
:103F20001DFB0122022105200007FFF717FB0120DE
:103F300000F03EF8032000F003F810BD00400440FC
:103F400010B50446012C04D0022C11D0032C2DD125
:103F50001DE000230322114605200007FFF72AFB7E
:103F600001230822194605200007FFF723FB1DE067
:103F700001230322114605200007FFF71BFB002346
:103F80000822012105200007FFF714FB0EE00023A3
:103F90000322114605200007FFF70CFB002308222F
:103FA000012105200007FFF705FB00BF00BF10BD82
:103FB00010B50446012C04D0022C11D0032C2DD1B5
:103FC0001DE001230922194605200007FFF7F2FA38
:103FD00001230422022105200007FFF7EBFA1DE070
:103FE00000230922012105200007FFF7E3FA01233E
:103FF0000422022105200007FFF7DCFA0EE001236E
:104000000922194605200007FFF7D4FA00230422ED
:10401000022105200007FFF7CDFA00BF00BF10BD49
:1040200010B5FFF730FDFFF713FD0220FFF76AF828
:1040300010BD10B5FFF71EFDFFF713FD0120FFF7C0
:1040400061F8FEF719FF10BD1FB5314800690390F4
:104050003048007830490978304A1278009201914E
:1040600002902F4803682F4802782F4801782F4884
:10407000FEF7C2F82E4802782E4801782EA0FEF7EF
:10408000BBF836480388364802783648017836A0AF
:10409000FEF7B2F841A0FEF7AFF8434800780128D8
:1040A00005D11E480078002801D13F4908703F48DB
:1040B0000078002804D13E480068401C3C49086054
:1040C0003C480078002805D139480068401C384930
:1040D000086000BF17480078012817D136480088CB
:1040E000401C35490880084600880A280EDB104825
:1040F0000078012803D1FFF7C6FCFFF7A9FC0020D8
:104100000B4908700B4908702B4908801FBD00003F
:1041100000E000E0040100100D010010210100107A
:10412000180100100801001014010010286200009E
:10413000FC0000102201001063616E5F736F756EEA
:10414000645F666C61673D3D25642C206D75746508
:104150005F666C61673D3D25640000001201001040
:104160000A01001009010010443138565F494E5FC2
:10417000666C61673D3D25642C20443138565F49AB
:104180004E5F636F756E743D3D25642C20776169C9
:1041900074636E743D3D2564000000000D0A2031FB
:1041A000353A3334000000006801001005010010AA
:1041B000000100102D0100101E01001010B5FFF7C6
:1041C000F9F80149086010BD8801001010B5FEF72C
:1041D00073FF10BD38B52020FFF74EFA0020009085
:1041E000401C0090FF28FBDD0120FFF729F980200B
:1041F000FFF736FA0C4C2320A0608020FFF73CFA32
:10420000E068C007C00FFBD0074901204031886338
:1042100006490222086980088000104308610320D3
:10422000FFF704F938BD00000080044000C00340DF
:10423000014610480068802210430E4A1060022098
:104240000D4A50600520D0607D2080014843906178
:1042500001201060032050610120506010200028D0
:1042600005DBC306DB0E01229A40044B1A6000BF37
:10427000704700008080044000C0004000E100E082
:1042800010B5B2480068C007C00F00287ED0B04803
:104290000078401CAE49087008460078012876DD99
:1042A0000120AC490870AC490870AC490870AC49B1
:1042B0000870AC480078012805D1AB480078401C54
:1042C000A949087005E0A7480078002801D1A6494F
:1042D000087000209E490870A4480078401CA3493B
:1042E0000870084600780128D9DD0120A04908702F
:1042F00000209E4908709F480078401C9D49087026
:104300009D480088401C9C4908809C4800780028F3
:104310000AD198480078042810DD012098490870D7
:1043200000209449087009E092480078312805DDA2
:1043300001209349087000208E4908708E4800883B
:10434000322824D100208C49088001208D49088022
:104350008D480078401C8C490870084600783C283D
:10436000EFD10020087089480078401C8749087008
:10437000084600783C28E4D1002008708448007882
:10438000401C834908700846007801E0DDE0D9E070
:104390001828D6D1002008707E480078401C7D493E
:1043A00008707D480078030000F00CF90DCB08156B
:1043B0004754616E7B8895A2AFBCCB0075480078EE
:1043C000202807D101207349087073480078401CE9
:1043D00071490870B5E071480478E017800F001942
:1043E00080108000201A06D164216C480078FDF707
:1043F000B3FF002907D1FF21913168480078FDF70C
:10440000ABFF00290CD1634800781E2814D101208D
:104410006049087060480078401C5F4908700BE0F4
:104420005C4800781D2807D101205A4908705A4875
:104430000078401C5849087083E0564800782028CE
:1044400007D101205349087053480078401C524955
:10445000087076E04F4800781F2807D101204D49A9
:1044600008704D480078401C4B49087069E0494885
:104470000078202807D10120464908704648007876
:10448000401C454908705CE0424800781F2807D16D
:1044900001204049087040480078401C3E4908709F
:1044A0004FE03C480078202807D1012039490870A6
:1044B00039480078401C3849087042E03548007897
:1044C000202807D101203349087033480078401C68
:1044D0003149087035E02F4800781F2807D10120A6
:1044E0002C4908702C480078401C2B49087028E0A3
:1044F00028480078202807D101202649087026483E
:104500000078401C244908701BE0224800781F28CE
:1045100007D101201F4908701F480078401C1E4920
:1045200008700EE01B480078202809D101201949A5
:1045300008701949087019480078401C174908701C
:1045400000BF00BF1F200149086010BD00C000402F
:1045500053010010500100105101001052010010D1
:104560005B010010210100105401001056010010E1
:10457000550100105A0100104E01001014010010E6
:10458000590100104C0100103401001035010010D9
:1045900036010010370100103801001039010010F9
:1045A00010B53A200449086004490348044A1268D7
:1045B00090470248006810BD100200103002001041
:1045C0006401001030B47446641E2578641CAB424C
:1045D00000D21D46635D5B00E31830BC1847000045
:1045E00010B5002819DB1A4A03231B02D2188308CE
:1045F0009B00D2588307DC0EFF23A3409A438B070E
:104600001B0E8407E40EA3401A43114B032424021B
:104610001B198408A4001A5118E00E4A03071B0F47
:10462000083B9B089B00D2588307DC0EFF23A34066
:104630009A438B071B0E8407E40EA3401A43054BD5
:104640000407240F083CA408A4001A5110BD000060
:1046500000E100E01CED00E0FEE7000010B50246BE
:104660001120064B1B68012484402343034C236024
:1046700000BF092008600248486010BD80800440E7
:10468000D73E000070B586B004460D462646002E83
:104690002CD12448019004216846017522480178F4
:1046A00068460173007B20490988081A0004010E3E
:1046B00001A84172407A00021B490968091A68463C
:1046C000007B081A0002010E01A88172807A0004A2
:1046D00015490968091A01A8407A0002091A6846B2
:1046E000007B081A010E01A8C1720FE0012E0DD146
:1046F0000E480068032149020843019002216846E0
:10470000017529780173697801A8417201A800F048
:10471000CDF9002804D106480068401C044908600F
:1047200006B070BD3F0600003C01001018010010EB
:10473000300100100FB470B586B014220AA901A888
:10474000FDF71CFD002000287ED103214902019CB9
:104750000C40002C79D16846007B552805D101A872
:10476000407AAA2801D1FFF797F9BB4800780028C2
:1047700005D0BA4800788006800E3F2847D1B84857
:104780000078002843D16846007B2A283AD101A846
:10479000407AFF2836D101A8817AC07A0002091830
:1047A00001A8007B0004091801A8407B00060E1830
:1047B000002E26D101A8807B012822DB01A8807B66
:1047C0003C281EDC0120A449087001A8807BA34975
:1047D00008600120A349A44A12788854A2480078AE
:1047E000142804DAA0480078401C9F490870FFF79D
:1047F00013F9FFF759F901209C49087000209C49E2
:10480000087000BF06B070BC08BC04B018479248DE
:104810000078012861D19248007800285DD168466F
:10482000007B012822D101A8407AFF281ED101A8CF
:10483000807A9049087001A8C07A8F49087001A851
:10484000007B8E49087001E003E1E0E001A8407BB5
:104850008B49087001A8807B8A49087001A8C07B39
:1048600089490870002089490880CBE76846007BA9
:104870002A2832D101A8407AFF282ED101A8817AB6
:10488000C07A0002091801A8007B0004091801A8D9
:10489000407B00060E187E48006886421CD101A8A5
:1048A000807B012817DB01A8807B3C2813DC01A852
:1048B000807B6A490860FFF7AFF8012169486A4ABE
:1048C0001278815468480078142804DA6648007821
:1048D000401C6549087095E700BF6846007B0228C8
:1048E00007D101A8407AFF2803D100206949087048
:1048F00088E76846007B032807D101A8407AFF2893
:1049000003D10120634908707CE76846007B0428D6
:1049100012D101A8407AFF280ED103205149524AF2
:104920001278885450480078142804DA4E480078E9
:10493000401C4D49087065E701984406640E4748DD
:104940000068844263D16846007B2B2816D101A8F9
:10495000407AFF2812D101A9887AFFF7F1FA0121E4
:104960004048414A127881543F480078142804DABC
:104970003D480078401C3C49087043E76846007B8E
:10498000052812D101A8407AFF280ED1042035490C
:10499000354A1278885434480078142804DA3248AA
:1049A0000078401C304908702CE76846007B0628D8
:1049B00012D101A8407AFF280ED1022129482A4AA3
:1049C0001278815428480078142804DA26480078A0
:1049D000401C2549087015E76846007B2C2816D135
:1049E00001A8407AFF2812D101A9887AFFF7E0FADE
:1049F00001211C481C4A127881541B480078142855
:104A000004DA19480078401C17490870FAE6FF21BB
:104A100081310198084004460846844218D1019922
:104A20004D066D0E00211C4A1180002005E003A9EF
:104A3000095C1A4A1154411CC8B20828F7DB01214D
:104A4000174A11700021174A1170174A1180D9E6D0
:104A500000BF00BFD6E600001401001018010010CE
:104A600008010010E80100101C0100102D010010C9
:104A70001501001039010010380100103701001035
:104A80003601001035010010340100104E010010F5
:104A90003C010010230100101E0100102401001031
:104AA00022010010480100104A01001010B5044610
:104AB0000CE010480078322808DD00200D4908700D
:104AC0000D490870FEF7E4FBFEF77AFB0A48007810
:104AD0000128EED0012008490870084860600120D4
:104AE00060740748806B8068016920468847012010
:104AF00010BD00005401001021010010FF0700004C
:104B0000C01FFF1F002009E0002101E04A1C91B2F4
:104B1000E12292009142F9DB421C90B21928F3DBAA
:104B200070470020C043704710B5C0B2FEF7E0FAEE
:104B3000002010BD70B504460D46FEF749FF204623
:104B4000FEF75AFD29462046FEF76AFD0120800740
:104B500001F006F870BD000096B00020FE49087014
:104B6000FE490870FE4908600E90FFF727FBFD48DC
:104B7000FD490860FFF776F9FC49086000BFFC4872
:104B8000006B0D900D98FA49086300BFFEF784FA98
:104B900005200007FEF796FCFEF792FEFEF72CFEBE
:104BA00004210D980840042860D10120FEF712FA74
:104BB00007460220FEF70EFA0002381884B2ED48CC
:104BC00001782046FEF72BFA601C84B2EA4801788F
:104BD0002046FEF724FA601C84B2E848017820469B
:104BE000FEF71DFA601C84B2E54801782046FEF706
:104BF00016FA601C84B2E34801782046FEF70FFAEB
:104C0000601C84B209212046FEF709FA601C84B2B8
:104C1000DD48844200DB03242746E017000EC0195C
:104C200000120002201AC1B20120FEF7F8F9E017C5
:104C3000000EC0190004010E0220FEF7F0F9D24860
:104C40001430FEF7C7F906460A2E08D10120CF49D5
:104C500008700020CE490860FEF7DEFE05E0701CFB
:104C6000C1B2C9481430FEF7DAF904E00021C648A1
:104C70001430FEF7D4F90020C6490870FFF7FEF89B
:104C80000020C5490870C54908700F90159000258F
:104C90001190149010901390C1490870C149087088
:104CA000C149087012900120AC4908700520FFF737
:104CB000BFFA0020BD490880BD490880FEF7E3FE29
:104CC000FEF750F9002801D1012012900520FFF7CE
:104CD000AFFA0020B5490880B5490880A0490860AE
:104CE000B4490888C117090E091809120902411AA6
:104CF000CAB208A94A7208A8007A8106890E08A8D3
:104D00000172007A08A9497AAA4A1288511A8910B0
:104D1000C0221140084308A90872A6480088A64985
:104D20000880FAE30120A5490870FEF7FFFCA449BA
:104D300008709A480078012803D0A248007801281A
:104D400020D19C490888C117090E091809120902C7
:104D5000411ACAB208A94A7208A8007A8106890EC7
:104D600008A80172007A08A9497A924A1288511A51
:104D70008910C0221140084308A908728D48008894
:104D80008D4908808B480088FDF7CEFD07468921B4
:104D9000C905FDF7D5FC0646FDF7A8FC8A4A8B4BF2
:104DA00003910290FDF77EFB0022894B0591049050
:104DB000FDF778FB002201239B070791069000F086
:104DC000D5FE03D201208349087004E00020814908
:104DD0000870704908708048007801287ED1002052
:104DE0007D4908700022022105200007FEF732FBF2
:104DF000002806D0012015900F2D7EDA681CC5B260
:104E00007BE01598012878D10022022105200007B7
:104E1000FEF720FB002870D1002D01DD681EC5B211
:104E2000002D6AD108A8007AC007C00F002862D000
:104E30001298012848D1FEF7CDF806460220FEF769
:104E4000C9F80002301884B24A4801782046FEF7BB
:104E5000E6F8601C84B2484801782046FEF7DFF887
:104E6000601C84B2454801782046FEF7D8F8601CE3
:104E700084B2434801782046FEF7D1F8601C84B222
:104E8000404801782046FEF7CAF8601C84B202212F
:104E90002046FEF7C4F8601C84B23B48844200DB25
:104EA00003242646E017000E801900120002201A83
:104EB000C1B20120FEF7B3F8E017000E801900041C
:104EC000010E0220FEF7ABF83148006801214902CB
:104ED0000843089008A8017AFE2000E082E0014023
:104EE00008A8017202210174FFF7E0FD00203B4990
:104EF00008703B490870002015900E2D01DC002D34
:104F000070D1159801286DD121480068012149020E
:104F100008430890002D65DD08A8007AC007C00F7F
:104F200000285FD108A8017A0120014308A8017276
:104F300002210174FFF7BAFD0020284908702849B2
:104F40000870129801284DD1FEF744F80646022059
:104F5000FEF740F8000246E02D01001005010010A8
:104F600000010010F11FFF1F640100103C01001040
:104F70000080044038010010370100103601001095
:104F80003501001034010010BF07000014010010AB
:104F9000180100100D0100100B0100100C01001091
:104FA000FC000010090100100A0100104C01001063
:104FB0004E0100105C010010060100106801001095
:104FC00008010010220100106666666666660A40E7
:104FD0000000104004010010500100105A010010A0
:104FE0005901001041E0301884B2FE480178204693
:104FF000FEF715F8601C84B2FB4801782046FEF7E6
:105000000EF8601C84B2F94801782046FEF707F8D4
:10501000601C84B2F64801782046FEF700F8601C58
:1050200084B2F44801782046FDF7F9FF601C84B291
:1050300001212046FDF7F3FF601C84B2EE48844254
:1050400000DB03242646E017000E80190012000240
:10505000201AC1B20120FDF7E2FFE017000E80190F
:105060000004010E0220FDF7DAFFE4480078012871
:105070007ED10020E14908700422012105200007AB
:10508000FEF7E8F9002809D10120149011980F28A3
:1050900003DA1198401CC0B211907FE014980128E7
:1050A0007CD10422012105200007FEF7D3F9002856
:1050B00074D01198002803DD1198401EC0B21190E1
:1050C000119800286AD108A8007A02210840022815
:1050D00062D11298012848D1FDF77CFF06460220D4
:1050E000FDF778FF0002301884B2BE4801782046F0
:1050F000FDF795FF601C84B2BB4801782046FDF7A0
:105100008EFF601C84B2B94801782046FDF787FF06
:10511000601C84B2B64801782046FDF780FF601C11
:1051200084B2B44801782046FDF779FF601C84B250
:1051300007212046FDF773FF601C84B2AE4884420D
:1051400000DB03242646E017000E8019001200023F
:10515000201AC1B20120FDF762FFE017000E80198E
:105160000004010E0220FDF75AFFA548006800E088
:1051700087E0012149020843089008A8017AFD2030
:10518000014008A8017202210174FFF78FFC002082
:105190009C4908709C4908700020149011980E28B2
:1051A00002DC119800286CD11498012869D1944828
:1051B000006801214902084308901198002860DD29
:1051C00008A8007A0221084000285AD108A8017ACC
:1051D0000220014308A8017202210174FFF766FC56
:1051E000002088490870884908701298012848D121
:1051F000FDF7F0FE06460220FDF7ECFE0002301837
:1052000084B2784801782046FDF709FF601C84B21B
:10521000754801782046FDF702FF601C84B2734890
:1052200001782046FDF7FBFE601C84B270480178CF
:105230002046FDF7F4FE601C84B26E4801782046DB
:10524000FDF7EDFE601C84B205212046FDF7E7FE68
:10525000601C84B26848844200DB03242646E017C1
:10526000000E801900120002201AC1B20120FDF7C1
:10527000D6FEE017000E80190004010E0220FDF793
:10528000CEFE6248007801287ED100205F49087078
:105290000322022105200007FEF7DCF8002809D1CF
:1052A0000120139010980F2803DA1098401CC0B208
:1052B000109080E0139801287DD10322022105205F
:1052C0000007FEF7C7F8002875D01098002803DD06
:1052D0001098401EC0B21090109800286BD108A8FA
:1052E000007A04210840042863D11298012848D18B
:1052F000FDF770FE06460220FDF76CFE0002301836
:1053000084B2384801782046FDF789FE601C84B2DB
:10531000354801782046FDF782FE601C84B2334890
:1053200001782046FDF77BFE601C84B2304801788E
:105330002046FDF774FE601C84B22E48017820469A
:10534000FDF76DFE601C84B208212046FDF767FE64
:10535000601C84B22848844200DB03242646E01700
:10536000000E801900120002201AC1B20120FDF7C0
:1053700056FEE017000E80190004010E0220FDF712
:105380004EFE1F48006801E09AE014E00121490246
:105390000843089008A8017AFB20014008A8017280
:1053A00002210174FFF782FB00201649087016499C
:1053B00008700020139010980E2802DC1098002826
:1053C0007ED1139801287BD10D4800680121490244
:1053D000084308901098002879DD08A8007A042175
:1053E000084015E0380100103701001036010010A8
:1053F0003501001034010010BF07000051010010FA
:10540000180100105A01001059010010520100103B
:1054100000285CD108A8017A0420014308A8017281
:1054200002210174FFF742FB0020FE490870FE498B
:105430000870129801284AD1FDF7CCFD06460220DB
:10544000FDF7C8FD0002301884B2F8480178204604
:10545000FDF7E5FD601C84B2F54801782046FDF7B4
:10546000DEFD601C84B2F34801782046FDF7D7FDCD
:10547000601C84B2F04801782046FDF7D0FD601C26
:1054800084B2EE4801782046FDF7C9FD601C84B265
:1054900006212046FDF7C3FD601C84B2E848844223
:1054A00000DB03242646E017000E801900120002DC
:1054B000201AC1B20120FDF7B2FDE017000E00E096
:1054C00005E080190004010E0220FDF7A8FDDD486B
:1054D000007801287DD1FEF7D9F901280BD1DA48EF
:1054E0000078002866D1D9480078002862D10120D0
:1054F000D74908705EE0D648007801285AD10020CC
:10550000D349087008A908721598002806D1087AAE
:10551000FE21084008A9087209E0BCE2159801289C
:1055200005D108A9087A0121084308A9087214982E
:10553000012806D108A9087A0221084308A908729F
:1055400008E01498002805D108A9087AFD21084030
:1055500008A908721398012806D108A9087A04211D
:10556000084308A9087208E01398002805D108A983
:10557000087AFB21084008A90872B6490888C117B3
:10558000090E091809120902411ACAB208A94A7279
:1055900008A8007A8106890E08A80172007A08A975
:1055A000497AAC4A1288511A8910C0221140084326
:1055B00008A90872FEF777F901280BD1A2480078F4
:1055C000002810D1A248007800280CD101209F4962
:1055D000087008E09D480078012804D100209B490C
:1055E0000870FEF71DFD9C48007800287EDD9B4872
:1055F0000078012806D0022813D0032845D00428BB
:1056000075D14FE096480068012189020843029055
:10561000002168460176417602A8FFF747FA079015
:10562000CDE08F48006801218902084302900421DF
:10563000684601768B48017868460174007C894988
:105640000988081A0004010E02A84172407A00027B
:1056500084490968091A6846007C081A0002010E8C
:1056600002A88172807A00047E490968091A02A89A
:10567000407A0002091A6846007C081A010E02A846
:10568000C172FFF713FA079099E0FDF76BFC002851
:1056900007D103210120FDF7C2FC00210220FDF704
:1056A000BEFC8CE0FDF75EFC00287DD10120FDF7FB
:1056B00091FC07460220FDF78DFC00023E18F01E0B
:1056C0000621FCF749FE064665480068012189026B
:1056D000084302900421684601764421017402A81F
:1056E00041723046F117090E091801E082E065E0C9
:1056F00009120902711ACAB202A98A72F117090EB7
:10570000091809040A0E02A9CA7202A8FFF7CEF905
:105710000020019042E0082168460176552101747D
:1057200002A84172062201995143C91C88B2FDF7B3
:1057300051FC02A98872062201995143091D88B2C1
:10574000FDF748FC02A9C872062201995143491D80
:1057500088B2FDF73FFC02A9087306220199514364
:10576000891D88B2FDF736FC02A94873062201990B
:105770005143C91D88B2FDF72DFC02A9887306228A
:1057800001995143083188B2FDF724FC02A9C8737E
:1057900002A8FFF78BF90198401C01900198B042D4
:1057A000B9DB0221684600E007E00176662101745A
:1057B00002A84172FFF77AF900BF00E000BF00BF06
:1057C0000798012815D12448007801280CDD002015
:1057D00004E0224A411C515C1154401C1E490978C6
:1057E000491E8142F5DC00BF1B480078401E1A4963
:1057F000087000BF1C480078012878D100201A49A1
:10580000087011480078012873D1184800780128E1
:1058100062D117480078112836D1154840781128F0
:1058200032D127E05A010010590100103801001050
:10583000370100103601001035010010340100104E
:10584000BF0700000D010010220100100C01001024
:105850000B010010060100101C010010E8010010EF
:10586000180100103C01001055010010FC00001050
:10587000240100109B480078012805D1FDF7FCFAAF
:1058800099A0FCF7B9FC73E09E480078222811D15A
:105890009C48407822280DD100209B4908709B49E4
:1058A00008709B49087099490870FEF7ECF8FEF7FC
:1058B000CFF85DE093480078332859D1914840787B
:1058C000332855D187480078012851D18D4EB61C18
:1058D0003046FDF709FB4BE001208D490870FEF7CB
:1058E000C9F8FEF7BEF800208A49088040E055E07C
:1058F000FFE77C48007801283AD1874800780128E2
:105900002DD18549087000BFFDF712FA0028FBD0A1
:10591000FDF738FA0646814800880B21C901084383
:1059200080B20790332108A841720172002706E077
:1059300032780AA8B91C4254761C781CC7B2062FCC
:10594000F6DB07980890082008A9087408A8FFF754
:10595000ADF80020724908707249088000BF724893
:105960000078012804D1FEF764FB00206949088013
:105970006E480078012807D1FEF75CF800206C49DA
:10598000087032200E9009E000206A4908700E98D5
:10599000002803DD0E98401EC0B20E9066480078C5
:1059A000012878D1002064490870644800780128F3
:1059B00003D10020614908700AE002206049487460
:1059C000002048605F48806B806881685C48884739
:1059D0005D480078012802D002287CD15CE00020DC
:1059E0000F905A4800780F2804DA58480078401C75
:1059F0005649087055480078554908705548007850
:105A000001280AD137480078002806D1FDF7A0F90F
:105A1000FEF739F80120334908704E480078012814
:105A200006D108A9087A1021084308A9087205E0E0
:105A300008A9087AEF21084008A908723C480078B4
:105A4000002802D1FDF7F6FF07E0FDF7E5FF08A902
:105A5000087A0821084308A908723F4800780128FD
:105A600004D10AA932480078FEF70CFE2F480078CE
:105A700001280FD100202E490870012036490870F6
:105A8000002032490870FDF79FF9FDF7C5F90220A3
:105A90002D49087023E023E02D4800780A2804DD12
:105AA00001202E490870FDF7FFFF2C4800780028E0
:105AB00001D1FDF7F1FF0F98401C0F901B480078B3
:105AC000002806D1FDF780F9FDF7A6F901201E494F
:105AD000087004E0FFE701201B49087000BF00BF09
:105AE000FFF720F90D0100100D0A414D42455365A5
:105AF0007453696E65282966696E697368656421E7
:105B00000D0A0000240100102C01001022010010D9
:105B1000FC0000104C0100100B01001018010010D7
:105B2000480100104A0100100C010010080100108B
:105B300014010010F800001059010010200100109D
:105B400090010010C01FFF1F100100100A0100107B
:105B50000E01001004010010230100100F010010BD
:105B600038218161402101607047000070B5012536
:105B70001C002D050C4310D4EC4206D4AC420AD4D0
:105B80008B4200D070BD824270BDEB4217D4E94217
:105B900015D48B4270BD9B4270BDEC4206D5AC4221
:105BA000F9D5994200D070BD904270BD6D005C0087
:105BB000EC4204D24C00EC4201D2994270BD0FB4C9
:105BC000034C0CBC03BC30B4FCF732FF30BC70BDDE
:105BD0001900160470B5420064414B005C41120E7E
:105BE00039D01B0E38D0FF2A3CD0FF2B3AD04002D0
:105BF0004902400A490A060045184E43000A090AAC
:105C0000D2184843ED017F3A0104731A4019190C68
:105C10004318990F04D001215B0849075B1A521CF5
:105C2000D80904D3401CF50301D19D0607D0FF2AF3
:105C300008D2D50506D0E4072043401970BD0125E0
:105C4000A843F4E7002A01DCE00770BD2402FF202E
:105C50002043C00570BD1B0EFF2A03D0FF2B01D0CF
:105C6000E00770BDFF2645003606B54206D84D0058
:105C7000B54203D8D218FF2A00D0E7E7004870BD2C
:105C80000000C07F13EC060064B0D80020000000C4
:105C90000000000000000000000000000000000004
:105CA00000000000000013EC0664B0D813EC000004
:105CB000000000000000A044D416884BA022EA0295
:105CC0002A854182218A6787230E63A8828A13EC82
:105CD0000200088001F40000000000000000000045
:105CE00000000000000000000000000000000000B4
:105CF00013EC0400000000000000000000000000A1
:105D00000000000000000000000000000000000093
:105D1000000013ECFE20000000000000D000D000C6
:105D2000D000D000000000000000000000000000D3
:105D300000000000ED320000253300007D3100003E
:105D40000000000000000000000000000000000053
:105D5000000000000000000003836BF2F7703BE1DD
:105D6000F4F350131F979AC71C14F135E8E7A126E6
:105D7000EB64CAD4CF58D98ACCDBB2783828E26B2E
:105D80003BAB8999D0CF434DD34C28BF27BF78ACCC
:105D9000243C135E6FC75E106C4435E298B765F122
:105DA0009B340E037050C4D773D3AF258720FF36C2
:105DB00084A394C4A09F879AA31CEC6857EFBC7B74
:105DC000546CD789BF081D5DBC8B76AF487826BC64
:105DD0004BFB4D4EDE8EBD20DD0DD6D229FE86C199
:105DE0002A7DED33C11927E7C29A4C1536691C0686
:105DF00035EA77F411D664AA12550F58E6A65F4B20
:105E0000E52534B90E41FE6D0DC2959FF931C58C63
:105E1000FAB2AE7EB149E330B2CA88C24639D8D1AF
:105E200045BAB323AEDE79F7AD5D120559AE421621
:105E30005A2D29E47E113ABA7D9251488961015B5D
:105E40008AE26AA96186A07D6205CB8F96F69B9C4B
:105E50009575F06EBC1D7B41BF9E10B34B6D40A08D
:105E600048EE2B52A38AE186A0098A7454FADA67B5
:105E70005779B1957345A2CB70C6C9398435992A33
:105E800087B6F2D86CD2380C6F5153FE9BA203ED4B
:105E90009821681FD3DA2551D0594EA324AA1EB0E9
:105EA00027297542CC4DBF96CFCED4643B3D847735
:105EB00038BEEF851C82FCDB1F019729EBF2C73A45
:105EC000E871ACC80315661C00960DEEF4655DFD27
:105ED000F7E6360F6293C6616110AD9395E3FD80DE
:105EE000966096727D045CA67E8737548A746747F5
:105EF00089F70CB5ADCB1FEBAE4874195ABB240A19
:105F000059384FF8B25C852CB1DFEEDE452CBECDA2
:105F100046AFD53F0D5498710ED7F383FA24A39062
:105F2000F9A7C86212C302B611406944E5B33957F4
:105F3000E63052A5C20C41FBC18F2A09357C7A1A82
:105F400036FF11E8DD9BDB3CDE18B0CE2AEBE0DD4E
:105F500029688B2F783BF6827BB89D708F4BCD6381
:105F60008CC8A69167AC6C45642F07B790DC57A42A
:105F7000935F3C56B7632F08B4E044FA401314E92A
:105F800043907F1BA8F4B5CFAB77DE3D5F848E2EA8
:105F90005C07E5DC17FCA892147FC360E08C937368
:105FA000E30FF881086B32550BE859A7FF1B09B4C2
:105FB000FC986246D8A47118DB271AEA2FD44AF954
:105FC0002C57210BC733EBDFC4B0802D3043D03EBC
:105FD00033C0BBCCA6B54BA2A536205051C57043EB
:105FE00052461BB1B922D165BAA1BA974E52EA8482
:105FF0004DD1817669ED92286A6EF9DA9E9DA9C924
:106000009D1EC23B767A08EF75F9631D810A330E37
:10601000828958FCC97215B2CAF17E403E022E53E5
:106020003D8145A1D6E58F75D566E4872195B49469
:106030002216DF66062ACC3805A9A7CAF15AF7D975
:10604000F2D99C2B19BD56FF1A3E3D0DEECD6D1EAB
:10605000ED4E06ECC4268DC3C7A5E6313356B622F5
:1060600030D5DDD0DBB11704D8327CF62CC12CE55D
:106070002F4247170B7E544908FD3FBBFC0E6FA80B
:10608000FF8D045A14E9CE8E176AA57CE399F56F4B
:10609000E01A9E9DABE1D3D3A862B8215C91E832AF
:1060A0005F1283C0B4764914B7F522E6430672F551
:1060B0004085190764B90A59673A61AB93C931B889
:1060C000904A5A4A7B2E909E78ADFB6C8C5EAB7FDB
:1060D0008FDDC08D1AA830E3192B5B11EDD80B02B0
:1060E000EE5B60F0053FAA2406BCC1D6F24F91C515
:1060F000F1CCFA37D5F0E969D673829B2280D28839
:106100002103B97ACA6773AEC9E4185C3D17484FDA
:106110003E9423BD756F6EF376EC0501821F551218
:10612000819C3EE06AF8F434697B9FC69D88CFD598
:106130009E0BA427BA37B779B9B4DC8B4D478C983E
:106140004EC4E76AA5A02DBEA623464C52D0165FCA
:1061500051537DAD00000000C027090090051000DC
:10616000C05C1500F0B31A00200B2000009F240033
:10617000E0322900C0C62D0050973100E06735009D
:106180007038390000093D0040164000802343006C
:10619000C030460004010000070100000C010000AF
:1061A0000D01000018010000190100001D01000090
:1061B000290100002A0100001C010000001BB7009B
:1061C000303132333435363738394142434445462D
:1061D0004030580030313233343536373839616227
:1061E0006364656640307800818283848586878811
:1061F000898B8C8D8E8F919293959697999A9C9D71
:106200009FA0A2A3A5A7A8AAACAEB0B2B3B5B7B9D8
:10621000BCBEC0C2C5C7C9CCCED1D4D7D9DCDFE2A1
:10622000E6E9ECF0F3F7FAFE0D0A2070785F666C91
:1062300061673D3D25642C20666C61675F31384F96
:106240004E3D3D25642C2043414E5F49443D3D2554
:10625000782C2063616E5F73656E645F666C616746
:106260003D3D25642C2069735F59595F496E6974FF
:106270003D3D25642C2069735F59595F416C6976F7
:10628000653D3D25642C2000A8620000F000001050
:10629000A0000000042100004863000090010010ED
:1062A0002006000020210000000000000000000087
:1062B00000000000000000000000000000000000DE
:1062C00001000000000000000100000000000000CC
:1062D0003F0000000000000000000000000000007F
:1062E00000000000000000000000000000000000AE
:1062F000000000000000000000000000000100009D
:10630000000000000000000000000000000000008D
:10631000000000000000000000000000000000007D
:10632000000000000000004005000000DD35000016
:10633000000000000000000000000000000000005D
:08634000000000000000000055
:04000005000020C116
:00000001FF
