:020000040000FA
:10200000B0070010B5210000BD2100001539000007
:10201000C1210000C3210000C52100000000000014
:10202000000000000000000000000000C7210000C8
:10203000C921000000000000CB2100004D4000003D
:10204000D1210000D1210000D1210000D1210000C8
:10205000D1210000D1210000D1210000D1210000B8
:10206000D1210000D1210000D1210000D1210000A8
:10207000D12100006D310000D1210000D1210000EC
:1020800005420000D1210000D1210000D121000033
:10209000D1210000D1210000CF210000CF2100007C
:1020A000F52C0000D1210000D1210000CF2100003B
:1020B000D1210000D1210000D1210000D121000058
:1020C00000F002F800F04BF80CA030C808382418D3
:1020D0002D18A246671EAB4654465D46AC4201D160
:1020E00000F03DF87E460F3E0FCCB6460126334247
:1020F00000D0FB1AA246AB4633431847CC41000040
:10210000EC410000103A02D378C878C1FAD85207DF
:1021100001D330C830C101D504680C60704700009D
:102120000023002400250026103A01D378C1FBD8F3
:10213000520700D330C100D50B60704710B5642939
:1021400002D100F09DF810BD782902D100F0CEF840
:1021500010BD002010BD1FB51FBD10B510BD00F093
:10216000E9FC1146FFF7F7FF02F0D8FC00F001FD93
:1021700003B4FFF7F2FF03BC02F030FA70B5054676
:102180000C46164602E00FCC0FC5103E102EFAD2B8
:10219000082E02D303CC03C5083E042E07D301CC7E
:1021A00001C5361F03E021782970641C6D1C761E62
:1021B000F9D270BD0A4880470A480047FEE7FEE7AB
:1021C000FEE7FEE7FEE7FEE7FEE7FEE7FEE7FEE7E7
:1021D000FEE7000004480549054A064B7047000029
:1021E00051410000C1200000B0020010B0070010F3
:1021F000B0040010B00400100FB4054910B503AAD4
:10220000029800F0EDFB10BC08BC04B018470000B9
:102210008C010010F8B50E460446002020622046CE
:10222000E1688847002829D0252802D06268A16883
:1022300020E0E16820460027884705001ED0284698
:102240004138192802D80127FF022035324620469E
:1022500027602946FFF772FF002808D0012804D024
:10226000F61DF608F6000836D9E7361DD7E762688E
:102270002846A1689047206A401CCFE7206AF8BD35
:10228000F7B5002575291068009914A611D0C0462D
:10229000C046002802DA404211A608E00099096809
:1022A0008A0701D50FA602E0490704D50EA601252D
:1022B00001E0C046C046009F0024243704E000F03F
:1022C000A3FB30313955641C0028F8D12B46324627
:1022D0002146009800F02BFBFEBD0000000000002E
:1022E0002D0000002B0000002000000070B5044607
:1022F0000D4621461068C046C0462188090502D512
:102300000F4A7A4402E00E4A7A440E3223460021F4
:10231000243305E006070009360F965D5E54491C1C
:102320000028F7D120780023000705D5702D03D0B1
:10233000002901D002231132204600F0F8FA70BDC6
:10234000FA3E0000002203098B422CD3030A8B4281
:1023500011D300239C464EE003460B433CD400229D
:1023600043088B4231D303098B421CD3030A8B42AF
:1023700001D394463FE0C3098B4201D3CB01C01A7D
:10238000524183098B4201D38B01C01A5241430948
:102390008B4201D34B01C01A524103098B4201D336
:1023A0000B01C01A5241C3088B4201D3CB00C01AA3
:1023B000524183088B4201D38B00C01A524143081B
:1023C0008B4201D34B00C01A5241411A00D2014640
:1023D0005241104670475DE0CA0F00D049420310D9
:1023E00000D34042534000229C4603098B422DD328
:1023F000030A8B4212D3FC22890112BA030A8B42D0
:102400000CD3890192118B4208D3890192118B421E
:1024100004D389013AD0921100E08909C3098B42A3
:1024200001D3CB01C01A524183098B4201D38B01E6
:10243000C01A524143098B4201D34B01C01A524189
:1024400003098B4201D30B01C01A5241C3088B42CE
:1024500001D3CB00C01A524183088B4201D38B00B9
:10246000C01A5241D9D243088B4201D34B00C01A43
:102470005241411A00D20146634652415B10104658
:1024800001D34042002B00D54942704763465B10A0
:1024900000D3404201B50020C046C04602BD70478F
:1024A00070477047F0B58B4C0F09254689B0BD4386
:1024B0007BD01D092646AE43FAD00E465E4027402B
:1024C000F60F3E43254071D024012142FBD0FF246A
:1024D000AD19A4042D1B039501252D05DB02DB0A94
:1024E000C9022B43C90A29431E010901040F130F16
:1024F000050121431701880B820391432D098C4666
:10250000A90B1E438A039543B30B9A0396433F09D5
:10251000BA0B9403A74302962E467E430497B64611
:102520004E19D7190C460196544305977E43371B25
:102530007646BF1B3601B646BE0B36190096764668
:10254000BC043719009C01D3641C00946400002F64
:1025500001D001263443029E049F754366467E43A4
:102560000496760034196E0034190094029C019E82
:102570001C196643751BAE46069465464519059CB5
:1025800005956C43594375460891691A0191049E5B
:1025900001465143A41B0491611A009C0791E10676
:1025A00005D061090122114302E072E06EE0610989
:1025B000089D00272C0A2D066918049D7C412A0AD3
:1025C0002D066918019D6241AC0DAD026D18544194
:1025D000079A910D920255196141029A6446584337
:1025E0005443069B059A5A43121A131B9A0E9B01D9
:1025F0005B187A41010B0005C3185141220A2006DD
:1026000044195A419A4200D2491C01204002814299
:1026100003D315230226F64302E014230326F643D0
:102620002020C51AA9401746AF40DA400A43204689
:102630000399D8400914731819055118039A38439F
:10264000D2075140AC4009D00122944006D3002269
:10265000401C5141002C01D1400840001E4A9342C9
:1026600012D3012203989206904207DB052040070F
:1026700009181A480143C012414004E003204007F2
:102680000818C10FC907002009B0F0BD0020F107EC
:10269000FAE705180C464C4111486D42A04115D38C
:1026A00094181A465A410E48644290410ED30120B4
:1026B0004A004005824209D35A00824206D359405B
:1026C000C90F084AC90700201143DDE70020064969
:1026D000DAE700000000FF07FE070000FFFFFF7FB2
:1026E0000000E0FF0000F07F0000F87F0121C90535
:1026F0000123411842001B06D3185B0E0AD0C110FB
:102700000722D206891840075242D14201D5520011
:1027100089187047090208D50146002A03D0C10F65
:10272000C9070020704710467047420202D00020BF
:1027300002497047072109050143F4E70000F87FCB
:10274000F0B5FF252D04C609C209FF2704462E4017
:102750000137CB093E4348402A402B400746002A18
:102760006BD0002B69D0AA4267D0AB4265D000285D
:1027700000DA32460125ED0529432C4309022002E7
:10278000090AD21A4B0C7F24E31A434C000A7C44FA
:10279000E35C7D242404121914145B00A2188842FF
:1027A00001D3521C00E0400049420C465C43241116
:1027B0005C43DB016415E318040A5C43C502200D89
:1027C0000C4644436419250A5D432303EC0C0D4673
:1027D000654300030019EB184C42A34201D35B1878
:1027E000401CD4052018002B07D05B00C91804D367
:1027F000401C002901D1400840003F2189048A4241
:1028000009D3002A08DC1106090F04D00321490767
:102810004018C00FC007F0BD012241001206891800
:102820007F2252069142F6D205214907C84201D5BE
:102830009010F0BDFF20C005F0BD002F00DA324639
:102840001648AA4207D2AB4205D21902090E17D088
:10285000F80FC007F0BDFF2563002D06AB42F9D885
:102860004900A942F6D8AB4201D1A942F2D0A9420F
:1028700001D1002101E061004908D0050843F0BD05
:102880001102090EFBD0FF200243D005F0BD0A461D
:102890000146104654E70000963A00000000C07F51
:1028A0000102C21504D00123DB071943002A0ADB09
:1028B0009E239A1A02D40846D0407047FF22410056
:1028C0001206914201D900207047C017C0437047DB
:1028D0001F22030C02D10F2200041CD0030E01D1D1
:1028E0000002083A030F01D10001121F830F01D12A
:1028F0008000921E002801DB4000521ED2055118B4
:10290000021251181922904004D3491C002801D109
:102910004908490008467047C10FC90700D0404226
:10292000012292071143D3E701218907D0E7FFB5C0
:1029300004460D4681B0243000902168880604D5F5
:102940001022E0699143216000E00120A84201DDEE
:10295000471B00E000270498A1697A191018081A8B
:10296000A0612078C00602D42046C046C04600269A
:1029700008E003986268A168805D9047206A401C67
:10298000761C206204988642F3DB2078C0060AD5C4
:102990002046C046C04606E06268A16830209047E5
:1029A000206A401C206238467F1E0028F4DC07E0C5
:1029B00000986268A168405D9047206A401C2062D0
:1029C00028466D1E0028F3DC2046C046C04620780D
:1029D000000602D5022005B0F0BD0120FBE7000093
:1029E000084B70B50D467B4400F06FF8044628464E
:1029F00002F079F8002802D00020C04370BD2046C4
:102A000070BD00000321000001468008081A020979
:102A10001018020A1018020C1018C00882001218B0
:102A20005200891A01E0401C0A390A29FBD270477A
:102A3000F8B5224C4E00069DA6420AD8A64201D106
:102A4000002806D15E00A64203D8A6420AD1002A79
:102A500008D00D24240425422CD02946002000F063
:102A600047F8F8BD0C461C430CD4994202D0EFF352
:102A70000080F8BD904202D0EFF30080F8BDEFF384
:102A80000080F8BD09242407E5008B4206D0EFF34F
:102A90000080A043591A06D2284304E0101A05D337
:102AA000EFF30080A04380F30088F8BDEFF30080CF
:102AB000A043F1E7009500F033F8F8BD0000E0FF17
:102AC00001694A1C02610878704700B58FB0029115
:102AD0000021059105490193794403911146049021
:102AE0006846FFF797FB0FB000BD0000E5FFFFFF52
:102AF000C80212D54803400F002804D0C803C043C1
:102B0000012188407047EFF3008000010009032194
:102B10000907084380F300887047002070470000D1
:102B200010B500200249029A00F02BF810BD0000F9
:102B30000000F87F754600F053F8AE460500694680
:102B40005346C008C000854618B020B5FFF742FBC9
:102B500060BC00274908B6460026C0C5C0C5C0C530
:102B6000C0C5C0C5C0C5C0C5C0C5403D49008D4633
:102B7000704710B50446C046C0462046FFF7F8FA35
:102B800010BD10B50C461107090F092904D00A29F8
:102B90000AD008290CD104E011460820FFF7A8FF4D
:102BA00006E0510606D501E0510601D50120C00717
:102BB000214610BDD10607D501010909CC084907F6
:102BC000000E0006044309E0410F20024907000AF5
:102BD0000143200E00061D22D14101430846E7E7CC
:102BE000004870475002001010B53B48806B102120
:102BF00088433949886339480068012149030843FB
:102C00003649086008460068012109040843334931
:102C1000086033488069602108403149886108466E
:102C20008069012108432E4988612E480068000A06
:102C300000022C49086008460068802108432949A1
:102C4000086008460068FF2109028843254908609A
:102C500022484038008FC1B223480068FFF772FB5A
:102C600004462249FFF76EFB401E00021D49096819
:102C700008431C490860084600680121090488438C
:102C80001849086008460068C9008843154908606B
:102C900008460068890288431249086008460068AF
:102CA0000121090608430F4908600846C068400A28
:102CB0004002C8600846C068802108430949C860CE
:102CC0001820002805DBC206D20E01219140084AD7
:102CD000116000BF10BD00000082044080800440ED
:102CE0008040044000C00140880100106CDC0200FC
:102CF00000E100E00A490978491C094A11700949B4
:102D0000C96A094A114008468109084A11800549E3
:102D10000968012212061143024A1160704700003F
:102D20006001001000C00140C0FF00005C01001005
:102D300010B5062200210520000700F09BFB10BD06
:102D400010B5072200210520000700F093FB10BDFD
:102D500010B500F0F9FF00F037F800F05DF813202F
:102D600007490870EC204870002405E00021044A5F
:102D7000A01C1154601CC4B2202CF7DB10BD000055
:102D8000C601001010B5002417E000231A460121E7
:102D90000520000700F006FC00F090FE09490855E8
:102DA00000F018FD0123002219460520000700F05D
:102DB000F9FB00F00FFD601CC4B2222CE5DB0148DA
:102DC0000A3010BDA401001010B501230522022114
:102DD000100700F0E7FB002403E000F0FBFC601CA0
:102DE00084B2C82CF9DB002305220221100700F071
:102DF000D9FB002403E000F0EDFC601C84B2054820
:102E00008442F8DB012305220221100700F0CAFBEF
:102E100010BD0000B80B000070B5164D07E0002D86
:102E200004D105252D04FFF7CFFF04E06D1EFFF749
:102E300087FF0028F3D000BF002417E00E49085D8B
:102E400000F0BCFE0023012211460520000700F01F
:102E5000A9FB00F0BFFC01231A4619460520000714
:102E600000F0A0FB00F0B6FC601CC4B2222CE5DB35
:102E700070BD0000FFFFFF0F0E5D000010B509E000
:102E8000154801880088401C134A1080134881426D
:102E900000DD10BDFFF754FF0028F1D0002417E03B
:102EA0000F49085D00F08AFE00230122114605202B
:102EB000000700F077FB00F08DFC01231A4619464D
:102EC0000520000700F06EFB00F084FC601CC4B21B
:102ED000222CE5DB00BFDCE712010010FAFF000046
:102EE000C45C000070B5054609E01C4801880088F4
:102EF000401C1A4A10801A48814200DD70BDFFF75D
:102F00001FFF0028F1D0002407E02978154A204649
:102F10000A3011546D1C601CC4B2062CF5DB002471
:102F200017E01049085D00F049FE00230122114618
:102F30000520000700F036FB00F04CFC01231A4688
:102F400019460520000700F02DFB00F043FC601C33
:102F5000C4B2222CE5DB00BFD0E700001201001054
:102F6000FAFF0000C601001070B5002000F034F830
:102F70000446882C01D1002070BD8821002000F07B
:102F800050F8002000F028F80446882C1CD10321BA
:102F9000012000F046F80021022000F042F80B4D1D
:102FA0000B492846FFF7CEF9CEB23146094800F06A
:102FB00038F807492846FFF7C5F9C6B23146054833
:102FC000401C00F02EF800BF0020D5E70CC73301ED
:102FD00010270000D107000030B50346002500F09F
:102FE000D3FC1C46D917090E091909124900A03152
:102FF000C8B200F0BAFC1C46D917090E091909120B
:103000000902591AC8B200F0B0FC00F0BDFCA120C2
:1030100000F0ABFC00F09AFC054600F0C8FC284626
:1030200030BD30B503460D4600F0AEFC1C46D91746
:10303000090E091909124900A031C8B200F095FC27
:103040001C46D917090E091909120902591AC8B2E2
:1030500000F08BFC284600F088FC00F0A8FC01F092
:1030600033FD30BD10B50B480121A4228150A822A8
:103070008150094C204600F00DFBE1214902204619
:1030800000F03AFB0320E0608120A06080202063F4
:1030900010BD0000004004400080004010B5FFF764
:1030A000E1FF0520000700F00FFA034801688022C5
:1030B0001143016010BD00000080005010B501F008
:1030C0004BF8094801680122120411430160074AC4
:1030D000074B002081005C582106240A890D5450BA
:1030E000401C0A28F6D310BD8080044000400440F4
:1030F000D461000001B501226946024800F0EAFAF5
:1031000008BD00000080004030B585B0044625466B
:10311000012D02D0022D1AD10CE0134800680B21BA
:10312000C901084300900821684601741121017209
:1031300041720CE00C4800680B21C9010843009063
:1031400008216846017422210172417200BF00BF4C
:10315000002168468172C172017341738173C1732A
:1031600001F086FC05B030BD1801001010B5034910
:10317000896B89684868804710BD0000C01FFF1F29
:10318000C107C90F00291CD102210140002918D113
:1031900004210140002914D108210140002910D147
:1031A0001021014000290CD120210140002908D123
:1031B00040210140002904D180210140002900D193
:1031C00000BF704700B58FB02022224905A8FEF746
:1031D000D5FF00206946487401901F4908701F49B7
:1031E00008601F4908701F4908701F4908701F496F
:1031F000087001201E49087000201E4908701E49F1
:1032000008701E4908701E4908701E4908700DA9F3
:103210001D4801F0E5F91D48806B806801210268B6
:103220000DA890471948806B806881686846884778
:103230001648806B8068C16905A888470D20002862
:1032400005DBC206D20E01219140114A116000BF78
:103250000FB000BD745D00002C01001030010010A3
:1032600034010010210100101C0100101501001094
:10327000230100103901001038010010370100103F
:10328000360100103501001010270000C01FFF1F7D
:1032900000E100E00D20002815DBC206D20E01215E
:1032A0009140114A116000BF00BF00BFBFF34F8FB4
:1032B00000BF00BF00BF00BF00BF00BFBFF36F8FE4
:1032C00000BF00BF00BF00BF084840680821884316
:1032D0000649486000BF00BF044840680821084311
:1032E000024948607047000080E100E0008004402F
:1032F00038B5044601200949087009484474094852
:10330000806B8068C168064888470548006900905E
:1033100003480FC801F0D0F938BD000020010010AB
:10332000FC010010C01FFF1F0021014A11707047EF
:1033300021010010F0B5FFB0FFB083B005460E4686
:10334000012292020D4901A8FEF718FF0024E44370
:103350002F4609E038787F1C60400006800D01A9E7
:103360000858210A484004463046761E0028F1D10C
:10337000E0437FB07FB003B0F0BD0000945D00007B
:1033800010B50B490020096B8907890F08D0012966
:1033900008D0022909D0032901D100F02BF810BD73
:1033A000044810BD00F012F810BD00F02FF810BD59
:1033B00040800440001BB70010B5FFF7E1FF024951
:1033C000896BFEF7BFFF10BD4080044006480068CF
:1033D0008007800F03D0012803D0002070470348E6
:1033E000704703480068704740800440001BB700E6
:1033F000FC61000000B504488168FFF7E7FFC906DB
:10340000C90E491C484300BD0080044010B5064861
:10341000406AC1050A0FC006810E9000034A891C4C
:103420001058FEF78FFF10BD00800440946100002B
:103430000349086300204863012048637047000087
:103440004080044003490860002048600120486033
:10345000704700004080044010B503460804C418BB
:103460000120904080002058002801D0012010BD8C
:103470000020FCE710B503460804C4180120904062
:1034800080002058002801D0012010BD0020FCE75A
:1034900010B503460804C41801209040800020584D
:1034A000002801D0012010BD0020FCE710B5034624
:1034B0000804C4180120904080002058002801D042
:1034C000012010BD0020FCE70248016840221143A2
:1034D000016070478080044030B50B041B18012444
:1034E000E4031B191B6801249440A3430C04241813
:1034F0000125ED036419236030BD30B50B041B18A2
:103500000124E4031B191B6801249440A3430C0409
:1035100024180125ED036419236030BD30B50B0478
:103520001B180124E4031B191B6801249440A343C6
:103530000C0424180125ED036419236030BD30B557
:103540000B041B180124E4031B191B68012494407D
:1035500023430C0424180125ED036419236030BDB6
:1035600030B50B041B180124E4031B191B6801244C
:10357000944023430C0424180125ED0364192360AF
:1035800030BD30B50B041B180124E4031B191B6864
:103590000124944023430C0424180125ED036419ED
:1035A000236030BD70B51C4694400D042E180125D3
:1035B0009540AD00745170BD70B51C4694400D042B
:1035C0002E1801259540AD00745170BD70B51C4694
:1035D00094400D042E1801259540AD00745170BD26
:1035E0001C225043044A8018012904D10069143078
:1035F00001780429FCD070476C0100101C2148435D
:1036000030B5064942181379054A146801259D40D2
:103610002C43146008586C22826130BD6C0100108C
:103620008080044070B50D460446FFF7A9FE294688
:10363000FEF788FE42081C214C4304490B591A61CD
:1036400009590A69801A486170BD00006C010010B8
:103650008B00C25070478B00C25070478B00C25025
:103660007047000004498A6BC0B2D2B21043ED2209
:10367000120210438863704700820440044A916B31
:10368000C0B2C9B28143ED2000020143916370478B
:103690000082044010B507490B680122140323433C
:1036A0000B608A61072181600321C1601021816262
:1036B00010BD00008080044010B50346002003E0E8
:1036C0000C78491C1C60401C904202DA5C69A4061C
:1036D000F6D410BDF0B51546074600260C4607E0A7
:1036E0002A4621463846FFF7E7FF2D1A36182418D8
:1036F000002DF5DC3046F0BD70B50E460446FFF7F0
:103700003FFE05463101FEF71DFE010A0A02E6688A
:10371000831A80221643E660DBB2C9B2236061607F
:10372000E1689143E16001462846FEF70BFE70BD5B
:1037300010B524480078012840D1002021490870A4
:1037400021480078002802D0012835D11AE0022251
:10375000012105200007FFF7A9FE00280ED01B4815
:1037600001780078401C194A1070022909DD0120F7
:103770001549087000201649087002E0002013491E
:1037800008701AE00222012105200007FFF78EFED3
:1037900000280DD10E4801780078401C0C4A1070AA
:1037A000322908DD0020084908700849087002E045
:1037B00000200749087000E000BF00BF0248007801
:1037C00010BD00005B010010450100104701001012
:1037D0004601001000200DE000BF00BF00BF00BF89
:1037E00000BF00BF00BF00BF00BF00BF00BF00BFE1
:1037F000411CC8B21428EFDB70470000F8B51C4824
:103800000068FFF791F807461A49FEF799FF064648
:10381000194902F0FFF90546FFF742F80446601E19
:103820001649884200D90CE0601E15494861032101
:10383000081F00F097FE00201149886107200861E9
:1038400000BFFFF727FDFFF7BDFC00200D494874BE
:10385000086048600C48806B806881680948884728
:10386000FFF7C2F90949002001F046F9F8BD000050
:1038700088010010002474490050C347FFFFFF0077
:1038800000E000E090010010C01FFF1FA0860100B3
:1038900010B50822022105200007FFF7F9FD0028D6
:1038A00001D1012010BD0020FCE710B50722022144
:1038B00005200007FFF7ECFD002801D1012010BD15
:1038C0000020FCE710B50022032105200007FFF7C8
:1038D00058FE00F0B1F80222012105200007FFF791
:1038E0001DFE052201211007FFF74BFE00220221D9
:1038F00005200007FFF712FE032202210520000722
:10390000FFF70CFE0422012105200007FFF706FE49
:1039100010BD000000BF00BF00BF00BF00BFBFF36D
:103920004F8F00BF00BF00BF06480749C86000BFF7
:1039300000BF00BFBFF34F8F00BF00BF00BF00BF7D
:1039400000BFFDE70400FA0500ED00E000BF012123
:1039500089070968082211400029F8D0D106896832
:10396000C8B20821CA0691617047012189078860A1
:1039700000BF012189070968082211400029F8D0F9
:103980000821CA0691617047012080070068202144
:1039900008434906086000BF01208007006808212D
:1039A00008400028F8D02820C1068861704701200F
:1039B0008007006810210843890608600820886194
:1039C00000BF012080070068102108400028F8D1BE
:1039D0007047000010B5012000BF0E494968012260
:1039E000824091430B4A516000BF00BF11464968B5
:1039F000012282401143074A516000BF00BF0122EB
:103A00000C210548FFF72AFE01220D210248FFF78D
:103A100025FE10BD008004400040044010B5012385
:103A20000022032105200007FFF7D0FD01200149F6
:103A3000087010BD4401001010B500231A46032180
:103A400005200007FFF7C2FD00200149087010BDE6
:103A50004401001010B500230122022105200007B7
:103A6000FFF7AAFD10BD10B501231A46022105205B
:103A70000007FFF7A1FD10BD10B5012302220021B0
:103A800005200007FFF798FD10BD10B500230222A6
:103A9000194605200007FFF78FFD10BD10B5002364
:103AA000052201211007FFF791FD10BD10B501237C
:103AB000052219461007FFF789FD10BD10B5002437
:103AC0000B22002105200007FFF706FD0B22022133
:103AD00005200007FFF700FD0A220121D006FFF7AD
:103AE000FBFC0922002105200007FFF7F5FC082256
:103AF000002105200007FFF7EFFC022211460520F8
:103B00000007FFF7E9FC0A220221D006FFF7E4FCD8
:103B10000922022105200007FFF7DEFC0B2200210D
:103B200005200007FFF7A6FC002801D00120044370
:103B30000B22022105200007FFF79CFC002801D082
:103B4000022004430A220121D006FFF793FC00283B
:103B500001D0042004430922002105200007FFF7BB
:103B600089FC002801D008200443082200210520F8
:103B70000007FFF77FFC002801D010200443022239
:103B8000114605200007FFF775FC002801D0202012
:103B900004430A220221D006FFF76CFC002801D062
:103BA000402004430922022105200007FFF762FCA0
:103BB000002801D080200443204610BD10B50446E3
:103BC0000B22002105200007FFF7B9FC0B22022180
:103BD00005200007FFF7B3FC0A220121D006FFF7FA
:103BE000AEFC0922002105200007FFF7A8FC0822EF
:103BF000002105200007FFF7A2FC02221146052044
:103C00000007FFF79CFC0A220221D006FFF797FC71
:103C10000922022105200007FFF791FCE007C00FF1
:103C2000002807D001230B22002105200007FFF701
:103C3000B9FC06E000230B22194605200007FFF718
:103C4000B1FC02202040002807D001230B220221D2
:103C500005200007FFF7A6FC06E000230B22022147
:103C600005200007FFF79EFC04202040002806D016
:103C700001230A221946D006FFF794FC05E0002331
:103C80000A220121D006FFF78DFC082020400028E1
:103C900007D001230922002105200007FFF782FC3D
:103CA00006E000230922194605200007FFF77AFCE9
:103CB00010202040002807D00123082200210520E1
:103CC0000007FFF76FFC06E00023082219460520D5
:103CD0000007FFF767FC20202040002807D00123C1
:103CE0000222114605200007FFF75CFC06E00023D6
:103CF0000222114605200007FFF754FC4020204017
:103D0000002806D001230A220221D006FFF74AFC30
:103D100005E000230A220221D006FFF743FC8020A1
:103D20002040002807D00123092202210520000796
:103D3000FFF738FC06E000230922022105200007D6
:103D4000FFF730FC10BD000010B5002211214548DE
:103D5000FFF77EFC052202211007FFF7F0FB81220E
:103D60001F214048FFF774FC01221146052000077F
:103D7000FFF7E5FB01221E213A48FFF769FC00220C
:103D8000012105200007FFF7DAFB00221421354846
:103D9000FFF75EFC0722002105200007FFF79CFBD0
:103DA000002213212F48FFF753FC06220021052093
:103DB0000007FFF791FB81221D212A48FFF748FCED
:103DC0000B22002105200007FFF7B9FB00221C2170
:103DD0002448FFF73DFC0B22022105200007FFF7D6
:103DE000AEFB80221B211F48FFF732FC0A22012173
:103DF000D006FFF7A4FB002219211A48FFF728FC80
:103E00000922002105200007FFF799FB0022182155
:103E10001448FFF71DFC0822002105200007FFF7CA
:103E20008EFB002217210F48FFF712FC02221146D9
:103E300005200007FFF783FB002216210948FFF742
:103E400007FC0A220221D006FFF779FB0022152188
:103E50000448FFF7FDFB0922022105200007FFF7B8
:103E60006EFB10BD0040044010B500F05BFB042168
:103E70000248FFF75FFA0446204610BD34020010E6
:103E800010B500222B212E48FFF7E5FB002205216B
:103E90002B48FFF7E0FB00220E212948FFF7DBFB50
:103EA000002210212648FFF7D6FB102209212448C2
:103EB000FFF7D1FB102208212148FFF7CCFB00229D
:103EC00007211F48FFF7C7FB00220A211C48FFF704
:103ED000C2FB0322114605200007FFF741FB082221
:103EE000012105200007FFF73BFB092201210520E6
:103EF0000007FFF735FB0422022105200007FFF72A
:103F00002FFB0822022105200007FFF7F6FA0722FF
:103F1000022105200007FFF7F0FA02220021052008
:103F20000007FFF71DFB0122022105200007FFF714
:103F300017FB012000F03EF8032000F003F810BD4D
:103F40000040044010B50446012C04D0022C11D0CE
:103F5000032C2DD11DE0002303221146052000076C
:103F6000FFF72AFB01230822194605200007FFF767
:103F700023FB1DE001230322114605200007FFF764
:103F80001BFB00230822012105200007FFF714FB7B
:103F90000EE000230322114605200007FFF70CFB6B
:103FA00000230822012105200007FFF705FB00BFC1
:103FB00000BF10BD10B50446012C04D0022C11D056
:103FC000032C2DD11DE001230922194605200007ED
:103FD000FFF7F2FA01230422022105200007FFF770
:103FE000EBFA1DE000230922012105200007FFF75D
:103FF000E3FA01230422022105200007FFF7DCFA7F
:104000000EE001230922194605200007FFF7D4FA24
:1040100000230422022105200007FFF7CDFA00BF8C
:1040200000BF10BD10B5FFF730FDFFF713FD0220F4
:10403000FFF76AF810BD10B5FFF71EFDFFF713FD7F
:104040000120FFF761F8FEF719FF10BD1FB52948E1
:10405000006903902848007828490978284A12788E
:104060000092019102902748036827480278274868
:1040700001782748FEF7C0F826A0FEF7BDF82948CA
:104080000078012805D11E480078002801D1254973
:10409000087025480078002804D124480068401C96
:1040A0002249086022480078002805D11F4800688E
:1040B000401C1E49086000BF1E480078012817D127
:1040C0001D480088401C1C490880084600880A28B2
:1040D0000EDB1A480078012803D1FFF7D6FCFFF762
:1040E000B9FC00201549087012490870124908806F
:1040F0001FBD000000E000E0040100100D010010F1
:104100002101001018010010080100101401001016
:10411000686200000D0A20323031382D362D3232DF
:1041200000000000680100100501001000010010EF
:104130002D010010220100101E010010FC000010D3
:1041400010B5FFF739F90149086010BD880100106A
:1041500010B5FEF7B3FF10BD38B52020FFF78EFA7B
:1041600000200090401C0090FF28FBDD0120FFF79D
:1041700069F98020FFF776FA0C4C2320A06080209C
:10418000FFF77CFAE068C007C00FFBD007490120A9
:104190004031886306490222086980088000104384
:1041A00008610320FFF744F938BD00000080044097
:1041B00000C00340014610480068802210430E4AA8
:1041C000106002200D4A50600520D0607D208001E3
:1041D000484390610120106003205061012050602D
:1041E0001020002805DBC306DB0E01229A40044B99
:1041F0001A6000BF704700008080044000C000408B
:1042000000E100E010B5B2480068C007C00F002808
:104210007ED0B0480078401CAE490870084600784F
:10422000012876DD0120AC490870AC490870AC4922
:104230000870AC490870AC480078012805D1AB483B
:104240000078401CA949087005E0A74800780028BC
:1042500001D1A649087000209E490870A448007842
:10426000401CA3490870084600780128D9DD0120C8
:10427000A049087000209E4908709F480078401CA3
:104280009D4908709D480088401C9C4908809C48B6
:10429000007800280AD198480078042810DD012011
:1042A0009849087000209449087009E09248007805
:1042B000312805DD01209349087000208E490870DF
:1042C0008E480088322824D100208C4908800120A3
:1042D0008D4908808D480078401C8C49087008463C
:1042E00000783C28EFD10020087089480078401CF5
:1042F00087490870084600783C28E4D100200870FF
:1043000084480078401C834908700846007801E022
:10431000DDE0D9E01828D6D1002008707E4800786A
:10432000401C7D4908707D480078030000F00CF9BE
:104330000DCB08154754616E7B8895A2AFBCCB00AE
:1043400075480078202807D1012073490870734808
:104350000078401C71490870B5E071480478E01796
:10436000800F001980108000201A06D164216C484B
:104370000078FDF7F1FF002907D1FF21913168484E
:104380000078FDF7E9FF00290CD1634800781E286A
:1043900014D101206049087060480078401C5F49D2
:1043A00008700BE05C4800781D2807D101205A49AD
:1043B00008705A480078401C5849087083E05648F5
:1043C0000078202807D1012053490870534800780D
:1043D000401C5249087076E04F4800781F2807D1EA
:1043E00001204D4908704D480078401C4B49087029
:1043F00069E049480078202807D101204649087023
:1044000046480078401C454908705CE04248007806
:104410001F2807D101204049087040480078401CFF
:104420003E4908704FE03C480078202807D1012021
:104430003949087039480078401C3849087042E012
:1044400035480078202807D10120334908703348C7
:104450000078401C3149087035E02F4800781F284B
:1044600007D101202C4908702C480078401C2B49AA
:10447000087028E028480078202807D10120264924
:10448000087026480078401C244908701BE0224828
:1044900000781F2807D101201F4908701F480078A5
:1044A000401C1E4908700EE01B480078202809D1E6
:1044B0000120194908701949087019480078401CF2
:1044C0001749087000BF00BF1F200149086010BDD8
:1044D00000C00040530100105001001051010010B5
:1044E000520100105B010010210100105401001066
:1044F00056010010550100105A0100104E01001025
:1045000014010010590100104C010010340100107A
:10451000350100103601001037010010380100107D
:104520003901001010B53A200449086004490348D5
:10453000044A126890470248006810BD100200103B
:10454000300200106401001030B47446641E2578F7
:10455000641CAB4200D21D46635D5B00E31830BCB7
:104560001847000010B5002819DB1A4A03231B0264
:10457000D21883089B00D2588307DC0EFF23A34088
:104580009A438B071B0E8407E40EA3401A43114B7A
:10459000032424021B198408A4001A5118E00E4AAF
:1045A00003071B0F083B9B089B00D2588307DC0EB8
:1045B000FF23A3409A438B071B0E8407E40EA340FE
:1045C0001A43054B0407240F083CA408A4001A5101
:1045D00010BD000000E100E01CED00E0FEE700007F
:1045E00010B502461120064B1B680124844023436A
:1045F000034C236000BF092008600248486010BDDA
:1046000080800440D73E000070B586B004460D4659
:104610002646002E2CD124480190042168460175BD
:104620002248017868460173007B20490988081AEE
:104630000004010E01A84172407A00021B4909687A
:10464000091A6846007B081A0002010E01A881724F
:10465000807A000415490968091A01A8407A000205
:10466000091A6846007B081A010E01A8C1720FE002
:10467000012E0DD10E480068032149020843019024
:1046800002216846017529780173697801A8417291
:1046900001A800F0EDF9002804D106480068401C8C
:1046A0000449086006B070BD3F0600003C010010E0
:1046B00018010010300100100FB470B586B014223C
:1046C0000AA901A8FDF75AFD002000287ED1032188
:1046D0004902019C0C40002C79D1C3A0FDF78CFD50
:1046E0006846007B552805D101A8407AAA2801D147
:1046F000FFF7D4F9C3480078002805D0C2480078F5
:104700008006800E3F284AD1C0480078002846D154
:104710006846007B2A283DD101A8407AFF2839D17C
:1047200001A8817AC07A0002091801A8007B000460
:10473000091801A8407B00060E18B5A0FDF75CFD26
:10474000002E26D101A8807B012822DB01A8807BD6
:104750003C281EDC0120AB49087001A8807BAA49D7
:1047600008600120B049B14A12788854AF480078F7
:10477000142804DAAD480078401CAC490870FFF7F3
:104780004DF9FFF793F90120A94908700020A949C4
:10479000087000BF06B070BC08BC04B01847994848
:1047A0000078012861D19948007800285DD16846D9
:1047B000007B012822D101A8407AFF281ED101A840
:1047C000807A9D49087001A8C07A01E009E1E6E01D
:1047D0009A49087001A8007B9949087001A8407B9C
:1047E0009849087001A8807B9749087001A8C07B90
:1047F00096490870002096490880CBE76846007B00
:104800002A2832D101A8407AFF282ED101A8817A26
:10481000C07A0002091801A8007B0004091801A849
:10482000407B00060E188B48006886421CD101A808
:10483000807B012817DB01A8807B3C2813DC01A8C2
:10484000807B71490860FFF7E9F801217648774AD3
:104850001278815475480078142804DA7348007877
:10486000401C7249087095E700BF6846007B02282B
:1048700007D101A8407AFF2803D1002076490870AB
:1048800088E76846007B032807D101A8407AFF2803
:1048900003D10120704908707CE76846007B04283A
:1048A00012D101A8407AFF280ED103205E495F4A49
:1048B000127888545D480078142804DA5B48007840
:1048C000401C5A49087065E701984406640E4E483A
:1048D0000068844263D16846007B2B2816D101A86A
:1048E000407AFF2812D101A9887AFFF72BFB01211A
:1048F0004D484E4A127881544C480078142804DA06
:104900004A480078401C4949087043E76846007BE4
:10491000052812D101A8407AFF280ED1042042496F
:10492000424A1278885441480078142804DA3F48F3
:104930000078401C3D4908702CE76846007B06283B
:1049400012D101A8407AFF280ED102213648374AF9
:104950001278815435480078142804DA33480078F6
:10496000401C3249087015E76846007B2C2816D198
:1049700001A8407AFF2812D101A9887AFFF71AFB13
:1049800001212948294A127881542848007814289E
:1049900004DA26480078401C24490870FAE6FF2112
:1049A00081310198084004460846844218D1019993
:1049B0004D066D0E0021294A1180002005E003A953
:1049C000095C274A1154411CC8B20828F7DB0121B1
:1049D000244A11700021244A1170244A1180D9E61A
:1049E00000BF00BFD6E600000D0A207263762049A2
:1049F0004431305F30395F4F72646572546F425397
:104A00004D000000140100101801001008010010F2
:104A10000D0A2070785F666C61673D3020726376A6
:104A20002032612066660000E80100101C010010C1
:104A30002D0100101501001039010010380100107F
:104A4000370100103601001035010010340100104C
:104A50004E0100103C010010230100101E01001047
:104A60002401001022010010480100104A0100102A
:104A700010B504460CE010480078322808DD00200C
:104A80000D4908700D490870FEF704FCFEF79AFB0B
:104A90000A4800780128EED001200849087008482B
:104AA0006060012060740748806B8068016920465F
:104AB0008847012010BD00005401001021010010A2
:104AC000FF070000C01FFF1F002009E0002101E0D8
:104AD0004A1C91B2E12292009142F9DB421C90B251
:104AE0001928F3DB70470020C043704710B5C0B2EF
:104AF000FEF700FB002010BD70B504460D46FEF722
:104B000069FF2046FEF77AFD29462046FEF78AFD1A
:104B10000120800701F044F870BD000096B000202D
:104B2000FE490870FE490870FE4908600E90FFF7C4
:104B300007FBFD48FD490860FFF796F9FC4908604E
:104B400000BFFC48006B0D900D98FA49086300BF48
:104B5000FEF7A4FA05200007FEF7B6FCFEF7B2FE4A
:104B6000FEF74CFE04210D980840042860D1012076
:104B7000FEF732FA07460220FEF72EFA0002381836
:104B800084B2ED4801782046FEF74BFA601C84B2EF
:104B9000EA4801782046FEF744FA601C84B2E848EF
:104BA00001782046FEF73DFA601C84B2E5480178A2
:104BB0002046FEF736FA601C84B2E34801782046AE
:104BC000FEF72FFA601C84B209212046FEF729FA6D
:104BD000601C84B2DD48844200DB03242746E017D2
:104BE000000EC01900120002201AC1B20120FEF707
:104BF00018FAE017000EC0190004010E0220FEF79B
:104C000010FAD2481430FEF7E7F906460A2E08D10A
:104C10000120CF4908700020CE490860FEF7FEFE53
:104C200005E0701CC1B2C9481430FEF7FAF904E07F
:104C30000021C6481430FEF7F4F90020C649087078
:104C4000FFF71EF90020C5490870C54908700F908C
:104C5000159000251190149010901390C149087080
:104C6000C1490870C149087012900120AC49087010
:104C70000520FFF79FFA0020BD490880BD49088044
:104C8000FEF703FFFEF770F9002801D10120129012
:104C90000520FFF78FFA0020B5490880B549088044
:104CA000A0490860B4490888C117090E09180912FB
:104CB0000902411ACAB208A94A7208A8007A8106F4
:104CC000890E08A80172007A08A9497AAA4A1288AE
:104CD000511A8910C0221140084308A90872A64839
:104CE0000088A6490880F5E3A5A0FDF785FA012014
:104CF000A8490870FEF71CFDA7490870984800787D
:104D0000012803D0A5480078012820D19A490888B5
:104D1000C117090E091809120902411ACAB208A9D5
:104D20004A7208A8007A8106890E08A80172007AE2
:104D300008A9497A904A1288511A8910C022114054
:104D4000084308A908728C4800888C4908808A4862
:104D50000088FDF7E9FD07468921C905FDF7F0FC4C
:104D60000646FDF7C3FC8E4A8E4B03910290FDF779
:104D700099FB00228C4B05910490FDF793FB0022D8
:104D800001239B070791069000F010FF03D201203A
:104D90008649087004E00020844908706E49087054
:104DA0008348007801287DD10020814908700022C5
:104DB000022105200007FEF74FFB002806D0012046
:104DC00015900F2D7EDA681CC5B27BE0159801287E
:104DD00078D10022022105200007FEF73DFB0028C4
:104DE00070D1002D01DD681EC5B2002D6AD108A862
:104DF000007AC007C00F002862D01298012848D15D
:104E0000FEF7EAF806460220FEF7E6F80002301840
:104E100084B2494801782046FEF703F9601C84B249
:104E2000464801782046FEF7FCF8601C84B24448EE
:104E300001782046FEF7F5F8601C84B241480178FD
:104E40002046FEF7EEF8601C84B23F480178204609
:104E5000FEF7E7F8601C84B202212046FEF7E1F875
:104E6000601C84B23948844200DB03242646E017E4
:104E7000000E801900120002201AC1B20120FEF7B4
:104E8000D0F8E017000E80190004010E0220FEF792
:104E9000C8F830480068012149020843089008A872
:104EA000017A00E08AE0FE20014008A80172022198
:104EB0000174FFF7DDFD00203E4908703E4908708F
:104EC000002015900E2D01DC002D77D115980128BA
:104ED00074D1204800680121490208430890002D40
:104EE0006CDD08A8007AC007C00F002866D108A8AA
:104EF000017A0120014308A8017202210174FFF721
:104F0000B7FD00202B4908702B4908701298012822
:104F100054D1FEF761F80646022050E02D01001042
:104F20000501001000010010F11FFF1F64010010B7
:104F30003C010010008004403801001037010010CF
:104F4000360100103501001034010010BF070000C9
:104F500014010010180100100D0100100B010010C9
:104F60000C010010FC000010090100100A010010E3
:104F70004C0100104E0100105C01001006010010F1
:104F80000D0A2072756E205768696C6528312920DA
:104F9000210000006801001008010010220100102B
:104FA0006666666666660A400000104004010010EE
:104FB000500100105A0100105901001044E0FEF7A2
:104FC0000BF80002301884B2FE4801782046FEF744
:104FD00028F8601C84B2FC4801782046FEF721F8CE
:104FE000601C84B2F94801782046FEF71AF8601C6C
:104FF00084B2F74801782046FEF713F8601C84B2AB
:10500000F44801782046FEF70CF8601C84B20121B8
:105010002046FEF706F8601C84B2EF48844200DBAD
:1050200003242646E017000E801900120002201A01
:10503000C1B20120FDF7F5FFE017000E8019000452
:10504000010E0220FDF7EDFFE448007801287DD134
:105050000020E24908700422012105200007FEF724
:10506000FBF9002809D10120149011980F2803DAC8
:105070001198401CC0B211907FE0149801287CD197
:105080000422012105200007FEF7E6F9002874D06C
:105090001198002803DD1198401EC0B2119011989C
:1050A00000286AD108A8007A02210840022862D1AB
:1050B0001298012848D1FDF78FFF06460220FDF720
:1050C0008BFF0002301884B2BE4801782046FDF7FD
:1050D000A8FF601C84B2BC4801782046FDF7A1FF00
:1050E000601C84B2B94801782046FDF79AFF601C25
:1050F00084B2B74801782046FDF793FF601C84B264
:10510000B44801782046FDF78CFF601C84B207216B
:105110002046FDF786FF601C84B2AF48844200DB66
:1051200003242646E017000E801900120002201A00
:10513000C1B20120FDF775FFE017000E80190004D1
:10514000010E0220FDF76DFFA54800E088E0006831
:10515000012149020843089008A8017AFD20014076
:1051600008A8017202210174FFF782FC00209D490A
:1051700008709D4908700020149011980E2802DCD8
:10518000119800286CD11498012869D194480068BE
:1051900001214902084308901198002860DD08A801
:1051A000007A0221084000285AD108A8017A02207A
:1051B000014308A8017202210174FFF759FC002085
:1051C00088490870884908701298012848D1FDF76D
:1051D00003FF06460220FDF7FFFE0002301884B2EE
:1051E000784801782046FDF71CFF601C84B27648A1
:1051F00001782046FDF715FF601C84B273480178E2
:105200002046FDF70EFF601C84B2714801782046ED
:10521000FDF707FF601C84B26E4801782046FDF759
:1052200000FF601C84B205212046FDF7FAFE601CD9
:1052300084B26948844200DB03242646E017000E4E
:10524000801900120002201AC1B20120FDF7E9FE08
:10525000E017000E80190004010E0220FDF7E1FEA8
:105260006248007801287DD100206049087003223F
:10527000022105200007FEF7EFF8002809D10120E0
:10528000139010980F2803DA1098401CC0B21090A9
:1052900080E0139801287DD1032202210520000718
:1052A000FEF7DAF8002875D01098002803DD109872
:1052B000401EC0B21090109800286BD108A8007A48
:1052C00004210840042863D11298012848D1FDF731
:1052D00083FE06460220FDF77FFE0002301884B2EE
:1052E000384801782046FDF79CFE601C84B23648A1
:1052F00001782046FDF795FE601C84B233480178A2
:105300002046FDF78EFE601C84B2314801782046AD
:10531000FDF787FE601C84B22E4801782046FDF719
:1053200080FE601C84B208212046FDF77AFE601CD6
:1053300084B22948844200DB03242646E017000E8D
:10534000801900120002201AC1B20120FDF769FE87
:10535000E017000E80190004010E0220FDF761FE27
:105360001F4801E09AE015E0006801214902084366
:10537000089008A8017AFB20014008A801720221C8
:105380000174FFF775FB0020164908701649087074
:105390000020139010980E2802DC109800287DD170
:1053A000139801287AD10E48006801214902084368
:1053B00008901098002879DD08A8007A0421084098
:1053C000002815E0380100103701001036010010E8
:1053D0003501001034010010BF070000510100101A
:1053E000180100105A01001059010010520100105C
:1053F0005CD108A8017A0420014308A801720221A7
:105400000174FFF735FB0020FE490870FE49087063
:10541000129801284AD1FDF7DFFD06460220FDF76C
:10542000DBFD0002301884B2F84801782046FDF711
:10543000F8FD601C84B2F64801782046FDF7F1FDC6
:10544000601C84B2F34801782046FDF7EAFD601C39
:1054500084B2F14801782046FDF7E3FD601C84B278
:10546000EE4801782046FDF7DCFD601C84B2062181
:105470002046FDF7D6FD601C84B2E948844200DB7B
:1054800003242646E017000E801900120002201A9D
:10549000C1B20120FDF7C5FDE01700E006E0000EF7
:1054A00080190004010E0220FDF7BBFDDD480078E5
:1054B00001287DD1FEF7ECF901280CD1DA480078FB
:1054C000002866D1D9480078002862D10120D84947
:1054D00008705EE0D6E2D6480078012859D1002055
:1054E000D349087008A908721598002805D1087AD0
:1054F000FE21084008A9087208E01598012805D186
:1055000008A9087A0121084308A9087214980128FB
:1055100006D108A9087A0221084308A9087208E000
:105520001498002805D108A9087AFD21084008A987
:1055300008721398012806D108A9087A04210843A3
:1055400008A9087208E01398002805D108A9087A6C
:10555000FB21084008A90872B6490888C117090E3E
:10556000091809120902411ACAB208A94A7208A800
:10557000007A8106890E08A80172007A08A9497A82
:10558000AC4A1288511A8910C0221140084308A958
:105590000872FEF78AF901280DD1A3480078002887
:1055A00012D1A348007800280ED101209F4900E0C5
:1055B0000AE0087008E09D480078012804D1002026
:1055C0009A490870FEF72EFD9B48007800287DDD83
:1055D0009A480078012806D0022813D0032845D025
:1055E000042874D14FE096480068012189020843DD
:1055F0000290002168460176417602A8FFF738FA4A
:105600000790CDE08E48006801218902084302908E
:105610000421684601768B48017868460174007C55
:1056200088490988081A0004010E02A84172407ACC
:10563000000284490968091A6846007C081A0002B9
:10564000010E02A88172807A00047E490968091A55
:1056500002A8407A0002091A6846007C081A010E66
:1056600002A8C172FFF704FA079099E0FDF77CFCED
:10567000002807D103210120FDF7D3FC00210220DF
:10568000FDF7CFFC8CE0FDF76FFC00287ED10120F8
:10569000FDF7A2FC07460220FDF79EFC00023E1823
:1056A000F01E0621FCF758FE0646654800680121F9
:1056B000890208430290042168460176442101745E
:1056C00002A841723046F117090E01E083E066E05E
:1056D000091809120902711ACAB202A98A72F117CD
:1056E000090E091809040A0E02A9CA7202A8FFF7D6
:1056F000BFF90020019042E008216846017655215B
:10570000017402A84172062201995143C91C88B252
:10571000FDF762FC02A98872062201995143091D16
:1057200088B2FDF759FC02A9C872062201995143BB
:10573000491D88B2FDF750FC02A9087306220199A1
:105740005143891D88B2FDF747FC02A94873062220
:1057500001995143C91D88B2FDF73EFC02A9887327
:10576000062201995143083188B2FDF735FC02A9A0
:10577000C87302A8FFF77CF90198401C01900198BA
:10578000B042B9DB02216846017600E006E06621FE
:10579000017402A84172FFF76BF900BF00E000BF7F
:1057A00000BF0798012815D12348007801280CDD97
:1057B000002004E0214A411C515C1154401C1E4948
:1057C0000978491E8142F5DC00BF1B480078401E65
:1057D0001949087000BF1C480078012878D10020C2
:1057E0001949087010480078012873D117480078CB
:1057F000012862D116480078112836D11448407823
:10580000112827E05A01001059010010380100103A
:10581000370100103601001035010010340100106E
:10582000BF0700000D010010220100100C01001044
:105830000B010010060100101C010010E80100100F
:10584000180100103C01001055010010FC00001070
:105850002401001009D1A4480078012805D1FDF7E2
:105860000DFBA2A0FCF7C8FC73E0A7480078222833
:1058700011D1A548407822280DD10020A3490870F5
:10588000A3490870A3490870A1490870FEF7FDF804
:10589000FEF7E0F85DE09C480078332859D19A483B
:1058A0004078332855D190480078012851D1964E40
:1058B000B61C3046FDF716FB4BE0012095490870F9
:1058C000FEF7DAF8FEF7CFF800209349088040E0B1
:1058D00055E0FFE78448007801283AD18F480078E6
:1058E00001282DD18D49087000BFFDF721FA00284D
:1058F000FBD0FDF747FA0646894800880B21C9010D
:10590000084380B20790332108A841720172002732
:1059100006E032780AA8B91C4254761C781CC7B23B
:10592000062FF6DB07980890082008A9087408A835
:10593000FFF79EF800207B4908707B49088000BF74
:105940007A480078012804D1FEF775FB00207249DF
:10595000088077480078012807D1FEF76DF800200D
:105960007449087032200E9009E0002072490870D6
:105970000E98002803DD0E98401EC0B20E906F48AE
:10598000007801287ED16EA0FCF736FC00206B4920
:10599000087070480078012803D100206D49087014
:1059A0000AE002206C494874002048606B48806B14
:1059B000806881686848884769480078012802D073
:1059C00002287DD165E000200F90664800780F28FE
:1059D00004DA64480078401C624908706148007825
:1059E000614908706148007801280AD13E48007872
:1059F000002806D1FDF7ACF9FEF747F801203A4937
:105A000008705A480078012806D108A9087A1021A0
:105A1000084308A9087205E008A9087AEF210840A0
:105A200008A9087243480078002802D1FEF704F85C
:105A300007E0FDF7F3FF08A9087A0821084308A941
:105A400008724B4801784BA0FCF7D6FB4848007819
:105A5000012807D14CA0FCF7CFFB0AA935480078F4
:105A6000FEF7D2FD32480078012811D100203149DB
:105A7000087001203E49087000203A490870FDF77F
:105A8000A3F900E02EE0FDF7C7F9022034490870C1
:105A900027E0354800780A2804DD01203F490870D6
:105AA000FEF704F83D480078002801D1FDF7F6FF25
:105AB0000F98401C0F901E48007800280CD100E081
:105AC0000BE02A480078012803D1FDF741F9FDF7E2
:105AD000DCFF01202249087003E001202049087002
:105AE00000BF00BFFFF700F90D0100100D0A414D86
:105AF000424553657453696E65282966696E6973FA
:105B0000686564210D0A0000240100102C010010BA
:105B100022010010FC0000104C0100100B010010CD
:105B200018010010480100104A0100100C0100107B
:105B30000801001014010010F800001059010010B5
:105B40000D0A2072756E2031487A207461736B20C3
:105B5000210000002001001090010010C01FFF1F55
:105B6000100100100A0100100E01001004010010C5
:105B7000230100100D0A2068656172745F666C6114
:105B8000673D3D25642000000D0A2073656E64208A
:105B90006865617274626561742000000F01001015
:105BA00038218161402101607047000070B50125F6
:105BB0001C002D050C4310D4EC4206D4AC420AD490
:105BC0008B4200D070BD824270BDEB4217D4E942D7
:105BD00015D48B4270BD9B4270BDEC4206D5AC42E1
:105BE000F9D5994200D070BD904270BD6D005C0047
:105BF000EC4204D24C00EC4201D2994270BD0FB489
:105C0000034C0CBC03BC30B4FCF712FF30BC70BDBD
:105C10001900160470B5420064414B005C41120E3D
:105C200039D01B0E38D0FF2A3CD0FF2B3AD040028F
:105C30004902400A490A060045184E43000A090A6B
:105C4000D2184843ED017F3A0104731A4019190C28
:105C50004318990F04D001215B0849075B1A521CB5
:105C6000D80904D3401CF50301D19D0607D0FF2AB3
:105C700008D2D50506D0E4072043401970BD0125A0
:105C8000A843F4E7002A01DCE00770BD2402FF20EE
:105C90002043C00570BD1B0EFF2A03D0FF2B01D08F
:105CA000E00770BDFF2645003606B54206D84D0018
:105CB000B54203D8D218FF2A00D0E7E7004870BDEC
:105CC0000000C07F13EC060064B0D8002000000084
:105CD00000000000000000000000000000000000C4
:105CE00000000000000013EC0664B0D813EC0000C4
:105CF000000000000000A044D416884BA022EA0255
:105D00002A854182218A6787230E63A8828A13EC41
:105D10000200088001F40000000000000000000004
:105D20000000000000000000000000000000000073
:105D300013EC040000000000000000000000000060
:105D40000000000000000000000000000000000053
:105D5000000013ECFE20000000000000D000D00086
:105D6000D000D00000000000000000000000000093
:105D700000000000F13200002933000081310000F2
:105D80000000000000000000000000000000000013
:105D9000000000000000000003836BF2F7703BE19D
:105DA000F4F350131F979AC71C14F135E8E7A126A6
:105DB000EB64CAD4CF58D98ACCDBB2783828E26BEE
:105DC0003BAB8999D0CF434DD34C28BF27BF78AC8C
:105DD000243C135E6FC75E106C4435E298B765F1E2
:105DE0009B340E037050C4D773D3AF258720FF3682
:105DF00084A394C4A09F879AA31CEC6857EFBC7B34
:105E0000546CD789BF081D5DBC8B76AF487826BC23
:105E10004BFB4D4EDE8EBD20DD0DD6D229FE86C158
:105E20002A7DED33C11927E7C29A4C1536691C0645
:105E300035EA77F411D664AA12550F58E6A65F4BDF
:105E4000E52534B90E41FE6D0DC2959FF931C58C23
:105E5000FAB2AE7EB149E330B2CA88C24639D8D16F
:105E600045BAB323AEDE79F7AD5D120559AE4216E1
:105E70005A2D29E47E113ABA7D9251488961015B1D
:105E80008AE26AA96186A07D6205CB8F96F69B9C0B
:105E90009575F06EBC1D7B41BF9E10B34B6D40A04D
:105EA00048EE2B52A38AE186A0098A7454FADA6775
:105EB0005779B1957345A2CB70C6C9398435992AF3
:105EC00087B6F2D86CD2380C6F5153FE9BA203ED0B
:105ED0009821681FD3DA2551D0594EA324AA1EB0A9
:105EE00027297542CC4DBF96CFCED4643B3D8477F5
:105EF00038BEEF851C82FCDB1F019729EBF2C73A05
:105F0000E871ACC80315661C00960DEEF4655DFDE6
:105F1000F7E6360F6293C6616110AD9395E3FD809D
:105F2000966096727D045CA67E8737548A746747B4
:105F300089F70CB5ADCB1FEBAE4874195ABB240AD8
:105F400059384FF8B25C852CB1DFEEDE452CBECD62
:105F500046AFD53F0D5498710ED7F383FA24A39022
:105F6000F9A7C86212C302B611406944E5B33957B4
:105F7000E63052A5C20C41FBC18F2A09357C7A1A42
:105F800036FF11E8DD9BDB3CDE18B0CE2AEBE0DD0E
:105F900029688B2F783BF6827BB89D708F4BCD6341
:105FA0008CC8A69167AC6C45642F07B790DC57A4EA
:105FB000935F3C56B7632F08B4E044FA401314E9EA
:105FC00043907F1BA8F4B5CFAB77DE3D5F848E2E68
:105FD0005C07E5DC17FCA892147FC360E08C937328
:105FE000E30FF881086B32550BE859A7FF1B09B482
:105FF000FC986246D8A47118DB271AEA2FD44AF914
:106000002C57210BC733EBDFC4B0802D3043D03E7B
:1060100033C0BBCCA6B54BA2A536205051C57043AA
:1060200052461BB1B922D165BAA1BA974E52EA8441
:106030004DD1817669ED92286A6EF9DA9E9DA9C9E3
:106040009D1EC23B767A08EF75F9631D810A330EF7
:10605000828958FCC97215B2CAF17E403E022E53A5
:106060003D8145A1D6E58F75D566E4872195B49429
:106070002216DF66062ACC3805A9A7CAF15AF7D935
:10608000F2D99C2B19BD56FF1A3E3D0DEECD6D1E6B
:10609000ED4E06ECC4268DC3C7A5E6313356B622B5
:1060A00030D5DDD0DBB11704D8327CF62CC12CE51D
:1060B0002F4247170B7E544908FD3FBBFC0E6FA8CB
:1060C000FF8D045A14E9CE8E176AA57CE399F56F0B
:1060D000E01A9E9DABE1D3D3A862B8215C91E8326F
:1060E0005F1283C0B4764914B7F522E6430672F511
:1060F0004085190764B90A59673A61AB93C931B849
:10610000904A5A4A7B2E909E78ADFB6C8C5EAB7F9A
:106110008FDDC08D1AA830E3192B5B11EDD80B026F
:10612000EE5B60F0053FAA2406BCC1D6F24F91C5D4
:10613000F1CCFA37D5F0E969D673829B2280D288F8
:106140002103B97ACA6773AEC9E4185C3D17484F9A
:106150003E9423BD756F6EF376EC0501821F5512D8
:10616000819C3EE06AF8F434697B9FC69D88CFD558
:106170009E0BA427BA37B779B9B4DC8B4D478C98FE
:106180004EC4E76AA5A02DBEA623464C52D0165F8A
:1061900051537DAD00000000C0270900900510009C
:1061A000C05C1500F0B31A00200B2000009F2400F3
:1061B000E0322900C0C62D0050973100E06735005D
:1061C0007038390000093D0040164000802343002C
:1061D000C030460004010000070100000C0100006F
:1061E0000D01000018010000190100001D01000050
:1061F000290100002A0100001C010000001BB7005B
:1062000030313233343536373839414243444546EC
:1062100040305800303132333435363738396162E6
:1062200063646566403078008182838485868788D0
:10623000898B8C8D8E8F919293959697999A9C9D30
:106240009FA0A2A3A5A7A8AAACAEB0B2B3B5B7B998
:10625000BCBEC0C2C5C7C9CCCED1D4D7D9DCDFE261
:10626000E6E9ECF0F3F7FAFE0D0A2070785F666C51
:1062700061673D3D25642C20666C61675F31384F56
:106280004E3D3D25642C2043414E5F49443D3D2514
:10629000782C2063616E5F73656E645F666C616706
:1062A0003D3D25642C2069735F59595F496E6974BF
:1062B0003D3D25642C2069735F59595F416C6976B7
:1062C000653D3D25642C2000E8620000F0000010D0
:1062D000A00000000421000088630000900100106D
:1062E0002006000020210000000000000000000047
:1062F000000000000000000000000000000000009E
:10630000010000000000000002000000000000008A
:106310003F0000000000000000000000000000003E
:10632000000000000000000000000000000000006D
:10633000000000000000000000000000000100005C
:10634000000000000000000000000000000000004D
:10635000000000000000000000000000000000003D
:10636000000000000000004005000000E1350000D2
:10637000000000000000000000000000000000001D
:08638000000000000000000015
:04000005000020C116
:00000001FF
